{
  "transactions": [
    {
      "hash": "0x37ea4e33c2484ebda709484f4ad3e6e1ee76c9847d21ba72301a6f098ca7113a",
      "transactionType": "CREATE",
      "contractName": "LiquidityHelper",
      "contractAddress": "0x7e03f809674d0a0e72720358c23ea8c519dbd16e",
      "function": null,
      "arguments": [
        "0xE03A1074c86CFeDd5C142C4F04F1a1536e203543"
      ],
      "transaction": {
        "from": "0x1c2f3137e71dec33c6111cfeb7f58b8389f9ff21",
        "gas": "0xf88cb",
        "value": "0x0",
        "input": "0x60a034607a57601f610dbd38819003918201601f19168301916001600160401b03831184841017607e57808492602094604052833981010312607a57516001600160a01b0381168103607a57608052604051610d2a9081610093823960805181818160f50152818161021201528181610295015261055b0152f35b5f80fd5b634e487b7160e01b5f52604160045260245ffdfe60806040526004361015610011575f80fd5b5f3560e01c806391dd7346146102c4578063dc4c90d314610280578063e2e6fcbe1461017f5763f702040514610045575f80fd5b3461017b57366003190160c0811261017b5760a01361017b5760a4356001600160a01b0381169081900361017b575f6100c86100d66100f0936040519061008b8261037f565b84825233602083015261009d366103ed565b60408301528460608301528460808301528460a083015260c082015260405192839160208301610c0c565b03601f1981018352826103cb565b604051809381926348c8949160e01b835260048301610333565b0381837f00000000000000000000000000000000000000000000000000000000000000006001600160a01b03165af190811561017057602091610143915f9161014e575b50828082518301019101610474565b6040519060020b8152f35b61016a91503d805f833e61016281836103cb565b810190610c81565b5f610134565b6040513d5f823e3d90fd5b5f80fd5b3461017b573660031901610100811261017b5760a01361017b5760a4358060020b80910361017b5760c4358060020b80910361017b576100c86100d661020d935f93604051916101ce8361037f565b600183523360208401526101e1366103ed565b60408401526060830152608082015260e43560a08201528360c082015260405192839160208301610c0c565b0381837f00000000000000000000000000000000000000000000000000000000000000006001600160a01b03165af1908115610170575f91610266575b5060208180518101031261017b57602080910151604051908152f35b61027a91503d805f833e61016281836103cb565b8161024a565b3461017b575f36600319011261017b576040517f00000000000000000000000000000000000000000000000000000000000000006001600160a01b03168152602090f35b3461017b57602036600319011261017b5760043567ffffffffffffffff811161017b573660238201121561017b5780600401359067ffffffffffffffff821161017b57366024838301011161017b5761032f9160246103239201610555565b60405191829182610333565b0390f35b602060409281835280519182918282860152018484015e5f828201840152601f01601f1916010190565b35908160020b820361017b57565b35906001600160a01b038216820361017b57565b60e0810190811067ffffffffffffffff82111761039b57604052565b634e487b7160e01b5f52604160045260245ffd5b60a0810190811067ffffffffffffffff82111761039b57604052565b90601f8019910116810190811067ffffffffffffffff82111761039b57604052565b60a090600319011261017b5760405190610406826103af565b816004356001600160a01b038116810361017b5781526024356001600160a01b038116810361017b57602082015260443562ffffff8116810361017b5760408201526064358060020b810361017b576060820152608435906001600160a01b038216820361017b5760800152565b9081602091031261017b57518060020b810361017b5790565b80516001600160a01b03908116835260208083015182169084015260408083015162ffffff169084015260608083015160020b9084015260809182015116910152565b600f0b6f7fffffffffffffffffffffffffffffff1981146104f0575f0390565b634e487b7160e01b5f52601160045260245ffd5b9081602091031261017b5751801515810361017b5790565b6001600160a01b039182168152911660208201526001600160801b03909116604082015260600190565b9081602091031261017b575190565b606091907f00000000000000000000000000000000000000000000000000000000000000006001600160a01b031633819003610bd557815f9381010391610160831261017b576040516105a78161037f565b8135600281101561017b57815260a06105c26020840161036b565b6020830190815294603f19011261017b57604051916105e0836103af565b6105ec6040820161036b565b83526105f987820161036b565b6020840152608081013562ffffff8116810361017b57604084015261062060a0820161035d565b8388015260c08101356001600160a01b038116810361017b5760808401526040820192835261065160e0820161035d565b968201968752610664610100820161035d565b916080810192835261068561014060a083019361012081013585520161036b565b9060c08101918252516002811015610bc15715610b2257508251965160020b915160020b905190604051926080840184811067ffffffffffffffff82111761039b576040528352602083019081526040830191825260608301925f84526106fd60405199632d35e7ed60e11b8b5260048b019061048d565b5160020b60a48901525160020b60c48801525160e4870152516101048601526101406101248601525f610144860152604085610164815f865af1948515610170575f95610aee575b50838560801d86600f0b9080600f0b5f81126109fb575b8383126108a4575b8312610818575b5013610791575b505050506040519060208201526020815261078e6040826103cb565b90565b516020015191516001600160a01b039283169216813b15610814579183916107db9383604051809681958294630b0d9c0960e01b84528b6001600160801b0316916004850161051c565b03925af18015610809576107f1575b8080610772565b6107fc8280926103cb565b61080657806107ea565b80fd5b6040513d84823e3d90fd5b8380fd5b83515186519293506001600160a01b03908116921690853b156108a0579087916108606040519485938493630b0d9c0960e01b85526001600160801b0316916004850161051c565b038183885af180156108955790869161087c575b91909161076b565b81610886916103cb565b61089157845f610874565b8480fd5b6040513d88823e3d90fd5b8780fd5b84516020015192935090916001600160a01b0316853b156108a05760405190632961046560e21b825260048201528781602481838a5af180156109aa579088916109e2575b50508351602090810151875161093992916001600160a01b039182169116888b610912896104d0565b6040516323b872dd60e01b8152968795869485936001600160801b0316916004850161051c565b03925af180156109aa576109b5575b50604051630476982d60e21b81526020816004818b8a5af180156109aa57918894939291859261097b575b509050610764565b61099c9060203d6020116109a3575b61099481836103cb565b810190610546565b505f610973565b503d61098a565b6040513d8a823e3d90fd5b6109d69060203d6020116109db575b6109ce81836103cb565b810190610504565b610948565b503d6109c4565b816109ec916103cb565b6109f757865f6108e9565b8680fd5b84515192935090916001600160a01b0316853b1561017b5760405190632961046560e21b825260048201525f81602481838a5af1801561017057610ad9575b508351518651610a5f916020916001600160a01b039081169116888b610912886104d0565b03925af180156109aa57610abc575b50604051630476982d60e21b81526020816004818b8a5af180156109aa57908894939291610a9d575b5061075c565b610ab59060203d6020116109a35761099481836103cb565b505f610a97565b610ad49060203d6020116109db576109ce81836103cb565b610a6e565b610ae69197505f906103cb565b5f955f610a3a565b9094506040813d604011610b1a575b81610b0a604093836103cb565b8101031261017b5751935f610745565b3d9150610afd565b9251925160405163313b65df60e11b815297506020965087955060c49486945f94509092506001600160a01b0390911690610b6190600486019061048d565b60a48401525af1908115610170575f91610b92575b506040519060020b60208201526020815261078e6040826103cb565b610bb4915060203d602011610bba575b610bac81836103cb565b810190610474565b5f610b76565b503d610ba2565b634e487b7160e01b5f52602160045260245ffd5b60405162461bcd60e51b815260206004820152600f60248201526e2737ba102837b7b626b0b730b3b2b960891b6044820152606490fd5b8151610160820193926002821015610bc15761014091835260018060a01b036020820151166020840152610c486040820151604085019061048d565b6060810151600290810b60e08501526080820151900b61010084015260a081015161012084015260c001516001600160a01b0316910152565b60208183031261017b5780519067ffffffffffffffff821161017b570181601f8201121561017b5780519067ffffffffffffffff821161039b5760405192610cd3601f8401601f1916602001856103cb565b8284526020838301011161017b57815f9260208093018386015e830101529056fea2646970667358221220ede314c786681e5729f71a4b27f69c8ee127a2b7cfde440ec26b508fc17951b764736f6c634300081a0033000000000000000000000000e03a1074c86cfedd5c142c4f04f1a1536e203543",
        "nonce": "0x1f0",
        "chainId": "0xaa36a7"
      },
      "additionalContracts": [],
      "isFixedGasLimit": false
    },
    {
      "hash": "0xc4be16ed00caac1e8a66288367f2d895ab850145d16f60733a08c09063a14b49",
      "transactionType": "CALL",
      "contractName": null,
      "contractAddress": "0x94a9d9ac8a22534e3faca9f4e7f2e2cf85d5e4c8",
      "function": "approve(address,uint256)",
      "arguments": [
        "0x7E03f809674D0A0e72720358C23Ea8c519dBD16E",
        "115792089237316195423570985008687907853269984665640564039457584007913129639935"
      ],
      "transaction": {
        "from": "0x1c2f3137e71dec33c6111cfeb7f58b8389f9ff21",
        "to": "0x94a9d9ac8a22534e3faca9f4e7f2e2cf85d5e4c8",
        "gas": "0x10a01",
        "value": "0x0",
        "input": "0x095ea7b30000000000000000000000007e03f809674d0a0e72720358c23ea8c519dbd16effffffffffffffffffffffffffffffffffffffffffffffffffffffffffffffff",
        "nonce": "0x1f1",
        "chainId": "0xaa36a7"
      },
      "additionalContracts": [],
      "isFixedGasLimit": false
    },
    {
      "hash": "0x9aa6672a70fde5999f40459020821efe521aefb957fc1793b65a77d456529b6e",
      "transactionType": "CALL",
      "contractName": null,
      "contractAddress": "0xff34b3d4aee8ddcd6f9afffb6fe49bd371b8a357",
      "function": "approve(address,uint256)",
      "arguments": [
        "0x7E03f809674D0A0e72720358C23Ea8c519dBD16E",
        "115792089237316195423570985008687907853269984665640564039457584007913129639935"
      ],
      "transaction": {
        "from": "0x1c2f3137e71dec33c6111cfeb7f58b8389f9ff21",
        "to": "0xff34b3d4aee8ddcd6f9afffb6fe49bd371b8a357",
        "gas": "0x10a01",
        "value": "0x0",
        "input": "0x095ea7b30000000000000000000000007e03f809674d0a0e72720358c23ea8c519dbd16effffffffffffffffffffffffffffffffffffffffffffffffffffffffffffffff",
        "nonce": "0x1f2",
        "chainId": "0xaa36a7"
      },
      "additionalContracts": [],
      "isFixedGasLimit": false
    },
    {
      "hash": "0xd30ce43099ef92c2f2c51400c3d54374987a51d78d009da064abde08fe9dc553",
      "transactionType": "CALL",
      "contractName": "LiquidityHelper",
      "contractAddress": "0x7e03f809674d0a0e72720358c23ea8c519dbd16e",
      "function": "initializePool((address,address,uint24,int24,address),uint160)",
      "arguments": [
        "(0x94a9D9AC8a22534E3FaCa9F4e7F2E2cf85d5E4C8, 0xFF34B3d4Aee8ddCd6F9AFFFB6Fe49bD371b8a357, 3000, 60, 0x41a75f07bA1958EcA78805D8419C87a393764040)",
        "79228162514264337593543950336000000"
      ],
      "transaction": {
        "from": "0x1c2f3137e71dec33c6111cfeb7f58b8389f9ff21",
        "to": "0x7e03f809674d0a0e72720358c23ea8c519dbd16e",
        "gas": "0x160c9",
        "value": "0x0",
        "input": "0xf702040500000000000000000000000094a9d9ac8a22534e3faca9f4e7f2e2cf85d5e4c8000000000000000000000000ff34b3d4aee8ddcd6f9afffb6fe49bd371b8a3570000000000000000000000000000000000000000000000000000000000000bb8000000000000000000000000000000000000000000000000000000000000003c00000000000000000000000041a75f07ba1958eca78805d8419c87a39376404000000000000000000000000000000000000f4240000000000000000000000000",
        "nonce": "0x1f3",
        "chainId": "0xaa36a7"
      },
      "additionalContracts": [],
      "isFixedGasLimit": false
    },
    {
      "hash": "0xf24e7bc3fccfb592bdd45422ac416d56a3bf9be84309f0edf54b61fb5341c5d6",
      "transactionType": "CALL",
      "contractName": "LiquidityHelper",
      "contractAddress": "0x7e03f809674d0a0e72720358c23ea8c519dbd16e",
      "function": "addLiquidity((address,address,uint24,int24,address),int24,int24,int256)",
      "arguments": [
        "(0x94a9D9AC8a22534E3FaCa9F4e7F2E2cf85d5E4C8, 0xFF34B3d4Aee8ddCd6F9AFFFB6Fe49bD371b8a357, 3000, 60, 0x41a75f07bA1958EcA78805D8419C87a393764040)",
        "276000",
        "276600",
        "1000000000000000"
      ],
      "transaction": {
        "from": "0x1c2f3137e71dec33c6111cfeb7f58b8389f9ff21",
        "to": "0x7e03f809674d0a0e72720358c23ea8c519dbd16e",
        "gas": "0x5694c",
        "value": "0x0",
        "input": "0xe2e6fcbe00000000000000000000000094a9d9ac8a22534e3faca9f4e7f2e2cf85d5e4c8000000000000000000000000ff34b3d4aee8ddcd6f9afffb6fe49bd371b8a3570000000000000000000000000000000000000000000000000000000000000bb8000000000000000000000000000000000000000000000000000000000000003c00000000000000000000000041a75f07ba1958eca78805d8419c87a3937640400000000000000000000000000000000000000000000000000000000000043620000000000000000000000000000000000000000000000000000000000004387800000000000000000000000000000000000000000000000000038d7ea4c68000",
        "nonce": "0x1f4",
        "chainId": "0xaa36a7"
      },
      "additionalContracts": [],
      "isFixedGasLimit": false
    }
  ],
  "receipts": [
    {
      "status": "0x1",
      "cumulativeGasUsed": "0xa61b58",
      "logs": [],
      "logsBloom": "0x00000000000000000000000000000000000000000000000000000000000000000000000000000000000000000000000000000000000000000000000000000000000000000000000000000000000000000000000000000000000000000000000000000000000000000000000000000000000000000000000000000000000000000000000000000000000000000000000000000000000000000000000000000000000000000000000000000000000000000000000000000000000000000000000000000000000000000000000000000000000000000000000000000000000000000000000000000000000000000000000000000000000000000000000000000000",
      "type": "0x2",
      "transactionHash": "0xc4be16ed00caac1e8a66288367f2d895ab850145d16f60733a08c09063a14b49",
      "transactionIndex": "0x50",
      "blockHash": "0x30f7964a8234c6b58969de4938dab817b9cd087724234df283d72e91c2226e11",
      "blockNumber": "0x9b4b52",
      "gasUsed": "0xbf313",
      "effectiveGasPrice": "0x40c336bb",
      "from": "0x1c2f3137e71dec33c6111cfeb7f58b8389f9ff21",
      "to": null,
      "contractAddress": "0x7e03f809674d0a0e72720358c23ea8c519dbd16e"
    },
    {
      "status": "0x1",
      "cumulativeGasUsed": "0xa6d13b",
      "logs": [
        {
          "address": "0x94a9d9ac8a22534e3faca9f4e7f2e2cf85d5e4c8",
          "topics": [
            "0x8c5be1e5ebec7d5bd14f71427d1e84f3dd0314c0f7b2291e5b200ac8c7c3b925",
            "0x0000000000000000000000001c2f3137e71dec33c6111cfeb7f58b8389f9ff21",
            "0x0000000000000000000000007e03f809674d0a0e72720358c23ea8c519dbd16e"
          ],
          "data": "0xffffffffffffffffffffffffffffffffffffffffffffffffffffffffffffffff",
          "blockHash": "0x30f7964a8234c6b58969de4938dab817b9cd087724234df283d72e91c2226e11",
          "blockNumber": "0x9b4b52",
          "blockTimestamp": "0x6980e158",
          "transactionHash": "0x9aa6672a70fde5999f40459020821efe521aefb957fc1793b65a77d456529b6e",
          "transactionIndex": "0x51",
          "logIndex": "0xc0",
          "removed": false
        }
      ],
      "logsBloom": "0x00000000000000000000000000000000000000000000000200000000000000000000000000000000000000000000000000000000000000000000000000200000000000000000000000000000000000400000000000000000000008000000000000000000000000000000000000000000000000000000000000000000000000000000000000000000000000000000000004000000000000004000000000000000020000000100000000004000000000000000000000000000000000000000000020000000000000000000000000000000000000000000000000000000000000000010000000000000200000000000000000000000000000000000000000000000",
      "type": "0x2",
      "transactionHash": "0x9aa6672a70fde5999f40459020821efe521aefb957fc1793b65a77d456529b6e",
      "transactionIndex": "0x51",
      "blockHash": "0x30f7964a8234c6b58969de4938dab817b9cd087724234df283d72e91c2226e11",
      "blockNumber": "0x9b4b52",
      "gasUsed": "0xb5e3",
      "effectiveGasPrice": "0x40c336bb",
      "from": "0x1c2f3137e71dec33c6111cfeb7f58b8389f9ff21",
      "to": "0x94a9d9ac8a22534e3faca9f4e7f2e2cf85d5e4c8",
      "contractAddress": null
    },
    {
      "status": "0x1",
      "cumulativeGasUsed": "0xa7871e",
      "logs": [
        {
          "address": "0xff34b3d4aee8ddcd6f9afffb6fe49bd371b8a357",
          "topics": [
            "0x8c5be1e5ebec7d5bd14f71427d1e84f3dd0314c0f7b2291e5b200ac8c7c3b925",
            "0x0000000000000000000000001c2f3137e71dec33c6111cfeb7f58b8389f9ff21",
            "0x0000000000000000000000007e03f809674d0a0e72720358c23ea8c519dbd16e"
          ],
          "data": "0xffffffffffffffffffffffffffffffffffffffffffffffffffffffffffffffff",
          "blockHash": "0x30f7964a8234c6b58969de4938dab817b9cd087724234df283d72e91c2226e11",
          "blockNumber": "0x9b4b52",
          "blockTimestamp": "0x6980e158",
          "transactionHash": "0xd30ce43099ef92c2f2c51400c3d54374987a51d78d009da064abde08fe9dc553",
          "transactionIndex": "0x52",
          "logIndex": "0xc1",
          "removed": false
        }
      ],
      "logsBloom": "0x00000000000000000000000200000000000000000000000200000000000000000000000000000000000000000000000000000000000000000000000000200000000000000000000000000000000000400000000000000000000000000000000000000000000000000000000000000000000000000000000000000000000000000000000000000000000000000000000004000000000000004000000000000000020000000000000000000000000000000000000800000000000000000000000020000000000000000000000000000000000000000000000000000000000000000010000000000000200000000000000000000000000000000000000000010000",
      "type": "0x2",
      "transactionHash": "0xd30ce43099ef92c2f2c51400c3d54374987a51d78d009da064abde08fe9dc553",
      "transactionIndex": "0x52",
      "blockHash": "0x30f7964a8234c6b58969de4938dab817b9cd087724234df283d72e91c2226e11",
      "blockNumber": "0x9b4b52",
      "gasUsed": "0xb5e3",
      "effectiveGasPrice": "0x40c336bb",
      "from": "0x1c2f3137e71dec33c6111cfeb7f58b8389f9ff21",
      "to": "0xff34b3d4aee8ddcd6f9afffb6fe49bd371b8a357",
      "contractAddress": null
    },
    {
      "status": "0x1",
      "cumulativeGasUsed": "0xa87857",
      "logs": [
        {
          "address": "0xe03a1074c86cfedd5c142c4f04f1a1536e203543",
          "topics": [
            "0xdd466e674ea557f56295e2d0218a125ea4b4f0f6f3307b95f85e6110838d6438",
            "0x0f0f043dcdfd03b0170cdbccd566d72597f0134fd06f891eb2ff16f73497e545",
            "0x00000000000000000000000094a9d9ac8a22534e3faca9f4e7f2e2cf85d5e4c8",
            "0x000000000000000000000000ff34b3d4aee8ddcd6f9afffb6fe49bd371b8a357"
          ],
          "data": "0x0000000000000000000000000000000000000000000000000000000000000bb8000000000000000000000000000000000000000000000000000000000000003c00000000000000000000000041a75f07ba1958eca78805d8419c87a39376404000000000000000000000000000000000000f42400000000000000000000000000000000000000000000000000000000000000000000000000000000000043764",
          "blockHash": "0x30f7964a8234c6b58969de4938dab817b9cd087724234df283d72e91c2226e11",
          "blockNumber": "0x9b4b52",
          "blockTimestamp": "0x6980e158",
          "transactionHash": "0xf24e7bc3fccfb592bdd45422ac416d56a3bf9be84309f0edf54b61fb5341c5d6",
          "transactionIndex": "0x53",
          "logIndex": "0xc2",
          "removed": false
        }
      ],
      "logsBloom": "0x00000000000000000200000000000000000000000000800000000000000000000000000000000000000100000000000000000100000000000000000000000000000000000000000000000000000000000000000000000000000000000000000000000000000000000000000000000000000000000008100000000000000000000000000000000008000000000000000000000001000000000000000000200000000000000000000000000000000000000000000000000000000000000002000000000000000010000000002000000000000000000000020000000000000000001000000000000000000000000000000000000000000000000000000000000010",
      "type": "0x2",
      "transactionHash": "0xf24e7bc3fccfb592bdd45422ac416d56a3bf9be84309f0edf54b61fb5341c5d6",
      "transactionIndex": "0x53",
      "blockHash": "0x30f7964a8234c6b58969de4938dab817b9cd087724234df283d72e91c2226e11",
      "blockNumber": "0x9b4b52",
      "gasUsed": "0xf139",
      "effectiveGasPrice": "0x40c336bb",
      "from": "0x1c2f3137e71dec33c6111cfeb7f58b8389f9ff21",
      "to": "0x7e03f809674d0a0e72720358c23ea8c519dbd16e",
      "contractAddress": null
    },
    {
      "status": "0x1",
      "cumulativeGasUsed": "0xac6346",
      "logs": [
        {
          "address": "0xe03a1074c86cfedd5c142c4f04f1a1536e203543",
          "topics": [
            "0xf208f4912782fd25c7f114ca3723a2d5dd6f3bcc3ac8db5af63baa85f711d5ec",
            "0x0f0f043dcdfd03b0170cdbccd566d72597f0134fd06f891eb2ff16f73497e545",
            "0x0000000000000000000000007e03f809674d0a0e72720358c23ea8c519dbd16e"
          ],
          "data": "0x0000000000000000000000000000000000000000000000000000000000043620000000000000000000000000000000000000000000000000000000000004387800000000000000000000000000000000000000000000000000038d7ea4c680000000000000000000000000000000000000000000000000000000000000000000",
          "blockHash": "0x30f7964a8234c6b58969de4938dab817b9cd087724234df283d72e91c2226e11",
          "blockNumber": "0x9b4b52",
          "blockTimestamp": "0x6980e158",
          "transactionHash": "0x37ea4e33c2484ebda709484f4ad3e6e1ee76c9847d21ba72301a6f098ca7113a",
          "transactionIndex": "0x54",
          "logIndex": "0xc3",
          "removed": false
        },
        {
          "address": "0x94a9d9ac8a22534e3faca9f4e7f2e2cf85d5e4c8",
          "topics": [
            "0xddf252ad1be2c89b69c2b068fc378daa952ba7f163c4a11628f55a4df523b3ef",
            "0x0000000000000000000000001c2f3137e71dec33c6111cfeb7f58b8389f9ff21",
            "0x000000000000000000000000e03a1074c86cfedd5c142c4f04f1a1536e203543"
          ],
          "data": "0x0000000000000000000000000000000000000000000000000000000000d11841",
          "blockHash": "0x30f7964a8234c6b58969de4938dab817b9cd087724234df283d72e91c2226e11",
          "blockNumber": "0x9b4b52",
          "blockTimestamp": "0x6980e158",
          "transactionHash": "0x37ea4e33c2484ebda709484f4ad3e6e1ee76c9847d21ba72301a6f098ca7113a",
          "transactionIndex": "0x54",
          "logIndex": "0xc4",
          "removed": false
        },
        {
          "address": "0x94a9d9ac8a22534e3faca9f4e7f2e2cf85d5e4c8",
          "topics": [
            "0x8c5be1e5ebec7d5bd14f71427d1e84f3dd0314c0f7b2291e5b200ac8c7c3b925",
            "0x0000000000000000000000001c2f3137e71dec33c6111cfeb7f58b8389f9ff21",
            "0x0000000000000000000000007e03f809674d0a0e72720358c23ea8c519dbd16e"
          ],
          "data": "0xffffffffffffffffffffffffffffffffffffffffffffffffffffffffff2ee7be",
          "blockHash": "0x30f7964a8234c6b58969de4938dab817b9cd087724234df283d72e91c2226e11",
          "blockNumber": "0x9b4b52",
          "blockTimestamp": "0x6980e158",
          "transactionHash": "0x37ea4e33c2484ebda709484f4ad3e6e1ee76c9847d21ba72301a6f098ca7113a",
          "transactionIndex": "0x54",
          "logIndex": "0xc5",
          "removed": false
        },
        {
          "address": "0xff34b3d4aee8ddcd6f9afffb6fe49bd371b8a357",
          "topics": [
            "0xddf252ad1be2c89b69c2b068fc378daa952ba7f163c4a11628f55a4df523b3ef",
            "0x0000000000000000000000001c2f3137e71dec33c6111cfeb7f58b8389f9ff21",
            "0x000000000000000000000000e03a1074c86cfedd5c142c4f04f1a1536e203543"
          ],
          "data": "0x000000000000000000000000000000000000000000000000df0412475a1b5b07",
          "blockHash": "0x30f7964a8234c6b58969de4938dab817b9cd087724234df283d72e91c2226e11",
          "blockNumber": "0x9b4b52",
          "blockTimestamp": "0x6980e158",
          "transactionHash": "0x37ea4e33c2484ebda709484f4ad3e6e1ee76c9847d21ba72301a6f098ca7113a",
          "transactionIndex": "0x54",
          "logIndex": "0xc6",
          "removed": false
        },
        {
          "address": "0xff34b3d4aee8ddcd6f9afffb6fe49bd371b8a357",
          "topics": [
            "0x8c5be1e5ebec7d5bd14f71427d1e84f3dd0314c0f7b2291e5b200ac8c7c3b925",
            "0x0000000000000000000000001c2f3137e71dec33c6111cfeb7f58b8389f9ff21",
            "0x0000000000000000000000007e03f809674d0a0e72720358c23ea8c519dbd16e"
          ],
          "data": "0xffffffffffffffffffffffffffffffffffffffffffffffff20fbedb8a5e4a4f8",
          "blockHash": "0x30f7964a8234c6b58969de4938dab817b9cd087724234df283d72e91c2226e11",
          "blockNumber": "0x9b4b52",
          "blockTimestamp": "0x6980e158",
          "transactionHash": "0x37ea4e33c2484ebda709484f4ad3e6e1ee76c9847d21ba72301a6f098ca7113a",
          "transactionIndex": "0x54",
          "logIndex": "0xc7",
          "removed": false
        }
      ],
      "logsBloom": "0x00000000000000000000000200000000000000000000000200000000000000000000000000000000000000000000000000000100000000000000000000200000000000000000000000000008000000400000000000000000000008000000000000000000000000000000000080000000000000000008100000000010000000000000000001000000000010000000000004000000000000004000000000000000020004000100000000004000000000000000000800000000000000000000000020000002000000000000002000000000000000000000000000001000000000001010000000000000200000000000000004000000000000000000000000010010",
      "type": "0x2",
      "transactionHash": "0x37ea4e33c2484ebda709484f4ad3e6e1ee76c9847d21ba72301a6f098ca7113a",
      "transactionIndex": "0x54",
      "blockHash": "0x30f7964a8234c6b58969de4938dab817b9cd087724234df283d72e91c2226e11",
      "blockNumber": "0x9b4b52",
      "gasUsed": "0x3eaef",
      "effectiveGasPrice": "0x40c336bb",
      "from": "0x1c2f3137e71dec33c6111cfeb7f58b8389f9ff21",
      "to": "0x7e03f809674d0a0e72720358c23ea8c519dbd16e",
      "contractAddress": null
    }
  ],
  "libraries": [],
  "pending": [],
  "returns": {},
  "timestamp": 1770053977560,
  "chain": 11155111,
  "commit": "93d2452"
}