{
  "transactions": [
    {
      "hash": "0x5d3608a054deb38861fc872fcaaf8dc08f9cf2a79fde034ddcbef010dc7aa0e0",
      "transactionType": "CALL",
      "contractName": null,
      "contractAddress": "0x05e73354cfdd6745c338b50bcfdfa3aa6fa03408",
      "function": "initialize((address,address,uint24,int24,address),uint160)",
      "arguments": [
        "(0x233Dc75Bda7dB90a33454e4333E3ac96eB7FB84E, 0x524C057B1030B3D832f1688e4993159C7A124518, 500, 10, 0x906E3e24C04f6b6B5b6743BB77d0FCBE4d87C040)",
        "79228162514264337593543950336"
      ],
      "transaction": {
        "from": "0x1c2f3137e71dec33c6111cfeb7f58b8389f9ff21",
        "to": "0x05e73354cfdd6745c338b50bcfdfa3aa6fa03408",
        "gas": "0x127b6",
        "value": "0x0",
        "input": "0x6276cbbe000000000000000000000000233dc75bda7db90a33454e4333e3ac96eb7fb84e000000000000000000000000524c057b1030b3d832f1688e4993159c7a12451800000000000000000000000000000000000000000000000000000000000001f4000000000000000000000000000000000000000000000000000000000000000a000000000000000000000000906e3e24c04f6b6b5b6743bb77d0fcbe4d87c0400000000000000000000000000000000000000001000000000000000000000000",
        "nonce": "0x189",
        "chainId": "0x14a34"
      },
      "additionalContracts": [],
      "isFixedGasLimit": false
    },
    {
      "hash": "0xe25c7e7b6a4e06d3c14dc658fe7d467071a664263ccfa5384e4210bae7cee5d2",
      "transactionType": "CALL",
      "contractName": null,
      "contractAddress": "0x05e73354cfdd6745c338b50bcfdfa3aa6fa03408",
      "function": "initialize((address,address,uint24,int24,address),uint160)",
      "arguments": [
        "(0x4200000000000000000000000000000000000006, 0x524C057B1030B3D832f1688e4993159C7A124518, 3000, 60, 0x906E3e24C04f6b6B5b6743BB77d0FCBE4d87C040)",
        "79228162514264337593543950336"
      ],
      "transaction": {
        "from": "0x1c2f3137e71dec33c6111cfeb7f58b8389f9ff21",
        "to": "0x05e73354cfdd6745c338b50bcfdfa3aa6fa03408",
        "gas": "0x1267b",
        "value": "0x0",
        "input": "0x6276cbbe0000000000000000000000004200000000000000000000000000000000000006000000000000000000000000524c057b1030b3d832f1688e4993159c7a1245180000000000000000000000000000000000000000000000000000000000000bb8000000000000000000000000000000000000000000000000000000000000003c000000000000000000000000906e3e24c04f6b6b5b6743bb77d0fcbe4d87c0400000000000000000000000000000000000000001000000000000000000000000",
        "nonce": "0x18a",
        "chainId": "0x14a34"
      },
      "additionalContracts": [],
      "isFixedGasLimit": false
    }
  ],
  "receipts": [
    {
      "status": "0x1",
      "cumulativeGasUsed": "0x4fba3c",
      "logs": [
        {
          "address": "0x05e73354cfdd6745c338b50bcfdfa3aa6fa03408",
          "topics": [
            "0xdd466e674ea557f56295e2d0218a125ea4b4f0f6f3307b95f85e6110838d6438",
            "0x28020417e2d8305995c0c6c2526f9968eb076b7cb3b3cb7ff72c8d21ba0c7b64",
            "0x000000000000000000000000233dc75bda7db90a33454e4333e3ac96eb7fb84e",
            "0x000000000000000000000000524c057b1030b3d832f1688e4993159c7a124518"
          ],
          "data": "0x00000000000000000000000000000000000000000000000000000000000001f4000000000000000000000000000000000000000000000000000000000000000a000000000000000000000000906e3e24c04f6b6b5b6743bb77d0fcbe4d87c04000000000000000000000000000000000000000010000000000000000000000000000000000000000000000000000000000000000000000000000000000000000",
          "blockHash": "0xe0a088e85a4073df6c4f906b68d6d0eb12e4d216cc066b2e695af0cfd2d13704",
          "blockNumber": "0x237a2ab",
          "blockTimestamp": "0x6982a436",
          "transactionHash": "0xe25c7e7b6a4e06d3c14dc658fe7d467071a664263ccfa5384e4210bae7cee5d2",
          "transactionIndex": "0xb",
          "logIndex": "0x33",
          "removed": false
        }
      ],
      "logsBloom": "0x00000000000000000000000000000000000000000000000000000000000000000000000100000000008000020000000002000000000000000000000000000000000000000000000100000000000000000000000000000000000000000000000000000000000000000000000000000000000000000000000000000000000010000000000004000008000000000040000000000001000000010000000000200000000000000000000000000000000000000000000000000000000000000000000000000800001000000000000000000000000000000000000000000000000000000000000000000000000000000000000080000000000000000000000000000000",
      "type": "0x2",
      "transactionHash": "0xe25c7e7b6a4e06d3c14dc658fe7d467071a664263ccfa5384e4210bae7cee5d2",
      "transactionIndex": "0xb",
      "blockHash": "0xe0a088e85a4073df6c4f906b68d6d0eb12e4d216cc066b2e695af0cfd2d13704",
      "blockNumber": "0x237a2ab",
      "gasUsed": "0xca33",
      "effectiveGasPrice": "0x124f80",
      "blobGasUsed": "0xb0b8",
      "from": "0x1c2f3137e71dec33c6111cfeb7f58b8389f9ff21",
      "to": "0x05e73354cfdd6745c338b50bcfdfa3aa6fa03408",
      "contractAddress": null,
      "daFootprintGasScalar": "0x138",
      "l1BaseFeeScalar": "0x44d",
      "l1BlobBaseFee": "0x38e306b",
      "l1BlobBaseFeeScalar": "0xa118b",
      "l1Fee": "0x15f74ed7a",
      "l1GasPrice": "0x42552845",
      "l1GasUsed": "0x91a"
    },
    {
      "status": "0x1",
      "cumulativeGasUsed": "0x508397",
      "logs": [
        {
          "address": "0x05e73354cfdd6745c338b50bcfdfa3aa6fa03408",
          "topics": [
            "0xdd466e674ea557f56295e2d0218a125ea4b4f0f6f3307b95f85e6110838d6438",
            "0x332d707a7b2b384d96d5dc1721e69c77c602e7ba26c7ce658f03dc9c8e533704",
            "0x0000000000000000000000004200000000000000000000000000000000000006",
            "0x000000000000000000000000524c057b1030b3d832f1688e4993159c7a124518"
          ],
          "data": "0x0000000000000000000000000000000000000000000000000000000000000bb8000000000000000000000000000000000000000000000000000000000000003c000000000000000000000000906e3e24c04f6b6b5b6743bb77d0fcbe4d87c04000000000000000000000000000000000000000010000000000000000000000000000000000000000000000000000000000000000000000000000000000000000",
          "blockHash": "0xe0a088e85a4073df6c4f906b68d6d0eb12e4d216cc066b2e695af0cfd2d13704",
          "blockNumber": "0x237a2ab",
          "blockTimestamp": "0x6982a436",
          "transactionHash": "0x5d3608a054deb38861fc872fcaaf8dc08f9cf2a79fde034ddcbef010dc7aa0e0",
          "transactionIndex": "0xc",
          "logIndex": "0x34",
          "removed": false
        }
      ],
      "logsBloom": "0x00000000000200000000000000000000000000000000000000000000000000000000000100000000008000020000000000000000000000000020000000000000000000000000000200000000000000000000000000000000000000000000000000000000000000000000000008000000000010000000000000000000000000000000000004000008000000000040000000000001000000000000000000200000000000000000000000000000000000000000000000000000000000000000000000000000001004000000000000000000000000000000000000000000000000000000000000000000000000000000000000000000000000000000000000000000",
      "type": "0x2",
      "transactionHash": "0x5d3608a054deb38861fc872fcaaf8dc08f9cf2a79fde034ddcbef010dc7aa0e0",
      "transactionIndex": "0xc",
      "blockHash": "0xe0a088e85a4073df6c4f906b68d6d0eb12e4d216cc066b2e695af0cfd2d13704",
      "blockNumber": "0x237a2ab",
      "gasUsed": "0xc95b",
      "effectiveGasPrice": "0x124f80",
      "blobGasUsed": "0xa350",
      "from": "0x1c2f3137e71dec33c6111cfeb7f58b8389f9ff21",
      "to": "0x05e73354cfdd6745c338b50bcfdfa3aa6fa03408",
      "contractAddress": null,
      "daFootprintGasScalar": "0x138",
      "l1BaseFeeScalar": "0x44d",
      "l1BlobBaseFee": "0x38e306b",
      "l1BlobBaseFeeScalar": "0xa118b",
      "l1Fee": "0x15f74ed7a",
      "l1GasPrice": "0x42552845",
      "l1GasUsed": "0x86c"
    }
  ],
  "libraries": [],
  "pending": [],
  "returns": {},
  "timestamp": 1770169399297,
  "chain": 84532,
  "commit": "f67da94"
}