{
  "transactions": [
    {
      "hash": "0x8f03d23ebeedee45b05a52d192ac096b946ad40f465bfc23615ad063ea15465b",
      "transactionType": "CALL",
      "contractName": null,
      "contractAddress": "0x05e73354cfdd6745c338b50bcfdfa3aa6fa03408",
      "function": "initialize((address,address,uint24,int24,address),uint160)",
      "arguments": [
        "(0x944a6D90b3111884CcCbfcc45B381b7C864D7943, 0xCE728786975c72711e810aDCD9BC233A2a55d7C1, 500, 10, 0x906E3e24C04f6b6B5b6743BB77d0FCBE4d87C040)",
        "79228162514264337593543950336"
      ],
      "transaction": {
        "from": "0x1c2f3137e71dec33c6111cfeb7f58b8389f9ff21",
        "to": "0x05e73354cfdd6745c338b50bcfdfa3aa6fa03408",
        "gas": "0x127b6",
        "value": "0x0",
        "input": "0x6276cbbe000000000000000000000000944a6d90b3111884cccbfcc45b381b7c864d7943000000000000000000000000ce728786975c72711e810adcd9bc233a2a55d7c100000000000000000000000000000000000000000000000000000000000001f4000000000000000000000000000000000000000000000000000000000000000a000000000000000000000000906e3e24c04f6b6b5b6743bb77d0fcbe4d87c0400000000000000000000000000000000000000001000000000000000000000000",
        "nonce": "0x196",
        "chainId": "0x14a34"
      },
      "additionalContracts": [],
      "isFixedGasLimit": false
    },
    {
      "hash": "0xd3dd3ff32f03e00897309164e6add070982363ad6e8e61a2cf08636348095198",
      "transactionType": "CALL",
      "contractName": null,
      "contractAddress": "0x05e73354cfdd6745c338b50bcfdfa3aa6fa03408",
      "function": "initialize((address,address,uint24,int24,address),uint160)",
      "arguments": [
        "(0x4200000000000000000000000000000000000006, 0x944a6D90b3111884CcCbfcc45B381b7C864D7943, 3000, 60, 0x906E3e24C04f6b6B5b6743BB77d0FCBE4d87C040)",
        "79228162514264337593543950336"
      ],
      "transaction": {
        "from": "0x1c2f3137e71dec33c6111cfeb7f58b8389f9ff21",
        "to": "0x05e73354cfdd6745c338b50bcfdfa3aa6fa03408",
        "gas": "0x1267b",
        "value": "0x0",
        "input": "0x6276cbbe0000000000000000000000004200000000000000000000000000000000000006000000000000000000000000944a6d90b3111884cccbfcc45b381b7c864d79430000000000000000000000000000000000000000000000000000000000000bb8000000000000000000000000000000000000000000000000000000000000003c000000000000000000000000906e3e24c04f6b6b5b6743bb77d0fcbe4d87c0400000000000000000000000000000000000000001000000000000000000000000",
        "nonce": "0x197",
        "chainId": "0x14a34"
      },
      "additionalContracts": [],
      "isFixedGasLimit": false
    }
  ],
  "receipts": [
    {
      "status": "0x1",
      "cumulativeGasUsed": "0x64ffac",
      "logs": [
        {
          "address": "0x05e73354cfdd6745c338b50bcfdfa3aa6fa03408",
          "topics": [
            "0xdd466e674ea557f56295e2d0218a125ea4b4f0f6f3307b95f85e6110838d6438",
            "0xfa04fc73b38451a87f430c1a36bc1533d3216483699b1494ed77597ba1cd9912",
            "0x000000000000000000000000944a6d90b3111884cccbfcc45b381b7c864d7943",
            "0x000000000000000000000000ce728786975c72711e810adcd9bc233a2a55d7c1"
          ],
          "data": "0x00000000000000000000000000000000000000000000000000000000000001f4000000000000000000000000000000000000000000000000000000000000000a000000000000000000000000906e3e24c04f6b6b5b6743bb77d0fcbe4d87c04000000000000000000000000000000000000000010000000000000000000000000000000000000000000000000000000000000000000000000000000000000000",
          "blockHash": "0x42318ef2a66f2fb7d9734152273684377dc3c11286f995df239427cab0660939",
          "blockNumber": "0x237ac6e",
          "blockTimestamp": "0x6982b7bc",
          "transactionHash": "0x8f03d23ebeedee45b05a52d192ac096b946ad40f465bfc23615ad063ea15465b",
          "transactionIndex": "0xd",
          "logIndex": "0x62",
          "removed": false
        }
      ],
      "logsBloom": "0x00000100000000000000000004200000000000000000000000000000000000000000000100000000001000000000000000000000000000000000000080000000000000000000000000000000000000000000000000000000002000000000000000000000000000000000000000000000000000000000000000000000000000000000000004000008000000000000000000000001000000000000000000240000000000000000000000000000000000000000000000000000000000000000000000000000001000000000000000000000000000000000000000000000000000000000000000000000000000000000000000000002000000000000000000200000",
      "type": "0x2",
      "transactionHash": "0x8f03d23ebeedee45b05a52d192ac096b946ad40f465bfc23615ad063ea15465b",
      "transactionIndex": "0xd",
      "blockHash": "0x42318ef2a66f2fb7d9734152273684377dc3c11286f995df239427cab0660939",
      "blockNumber": "0x237ac6e",
      "gasUsed": "0xca33",
      "effectiveGasPrice": "0x124f80",
      "blobGasUsed": "0xb0b8",
      "from": "0x1c2f3137e71dec33c6111cfeb7f58b8389f9ff21",
      "to": "0x05e73354cfdd6745c338b50bcfdfa3aa6fa03408",
      "contractAddress": null,
      "daFootprintGasScalar": "0x138",
      "l1BaseFeeScalar": "0x44d",
      "l1BlobBaseFee": "0x3700fc0",
      "l1BlobBaseFeeScalar": "0xa118b",
      "l1Fee": "0x1555283c1",
      "l1GasPrice": "0x40fce6fb",
      "l1GasUsed": "0x91a"
    },
    {
      "status": "0x1",
      "cumulativeGasUsed": "0x65c907",
      "logs": [
        {
          "address": "0x05e73354cfdd6745c338b50bcfdfa3aa6fa03408",
          "topics": [
            "0xdd466e674ea557f56295e2d0218a125ea4b4f0f6f3307b95f85e6110838d6438",
            "0xbceb9216dbb1220e83641f1b4c3d371768e99f6b2c15b6c25764cff5b60d2d91",
            "0x0000000000000000000000004200000000000000000000000000000000000006",
            "0x000000000000000000000000944a6d90b3111884cccbfcc45b381b7c864d7943"
          ],
          "data": "0x0000000000000000000000000000000000000000000000000000000000000bb8000000000000000000000000000000000000000000000000000000000000003c000000000000000000000000906e3e24c04f6b6b5b6743bb77d0fcbe4d87c04000000000000000000000000000000000000000010000000000000000000000000000000000000000000000000000000000000000000000000000000000000000",
          "blockHash": "0x42318ef2a66f2fb7d9734152273684377dc3c11286f995df239427cab0660939",
          "blockNumber": "0x237ac6e",
          "blockTimestamp": "0x6982b7bc",
          "transactionHash": "0xd3dd3ff32f03e00897309164e6add070982363ad6e8e61a2cf08636348095198",
          "transactionIndex": "0xe",
          "logIndex": "0x63",
          "removed": false
        }
      ],
      "logsBloom": "0x00000000000000000000000004200000000000000000000000000000000000000000000100000000000000000000000000000000200000000020000000000000000000000000000000000000000000000000000000000000002000000000000000000000000000000000000000000000000010000000000000000000000000000000000004000008000000000000000000000001000000000000000000200000000000000000000000002000000000000000000000000000000000000000000000000000001004000000000000000000000000000000000000000000000000000000000000000000000000000000000000000000001000000000000000000000",
      "type": "0x2",
      "transactionHash": "0xd3dd3ff32f03e00897309164e6add070982363ad6e8e61a2cf08636348095198",
      "transactionIndex": "0xe",
      "blockHash": "0x42318ef2a66f2fb7d9734152273684377dc3c11286f995df239427cab0660939",
      "blockNumber": "0x237ac6e",
      "gasUsed": "0xc95b",
      "effectiveGasPrice": "0x124f80",
      "blobGasUsed": "0xa350",
      "from": "0x1c2f3137e71dec33c6111cfeb7f58b8389f9ff21",
      "to": "0x05e73354cfdd6745c338b50bcfdfa3aa6fa03408",
      "contractAddress": null,
      "daFootprintGasScalar": "0x138",
      "l1BaseFeeScalar": "0x44d",
      "l1BlobBaseFee": "0x3700fc0",
      "l1BlobBaseFeeScalar": "0xa118b",
      "l1Fee": "0x1555283c1",
      "l1GasPrice": "0x40fce6fb",
      "l1GasUsed": "0x86c"
    }
  ],
  "libraries": [],
  "pending": [],
  "returns": {},
  "timestamp": 1770174395145,
  "chain": 84532,
  "commit": "2246f28"
}