{
  "transactions": [
    {
      "hash": "0x90dae2a7c951d0275a04bf91b21c180620c5e07f87b263337d4269ac01732367",
      "transactionType": "CREATE",
      "contractName": "BaseSepoliaLiquidityHelper",
      "contractAddress": "0xdec4114c296ce88ee38c63607f3aabe46b40fed2",
      "function": null,
      "arguments": [
        "0x05E73354cFDd6745C338b50BcFDfA3Aa6fA03408"
      ],
      "transaction": {
        "from": "0x1c2f3137e71dec33c6111cfeb7f58b8389f9ff21",
        "gas": "0xcb5ba",
        "value": "0x0",
        "input": "0x60a034607457601f610b2338819003918201601f19168301916001600160401b03831184841017607857808492602094604052833981010312607457516001600160a01b0381168103607457608052604051610a96908161008d8239608051818181610192015281816102bc015261033e0152f35b5f80fd5b634e487b7160e01b5f52604160045260245ffdfe6080806040526004361015610012575f80fd5b5f905f3560e01c90816391dd7346146102eb57508063dc4c90d3146102a65763e2e6fcbe1461003f575f80fd5b346101e657366003190161010081126102a25760a0136101e65760a435908160020b8092036101e65760c435918260020b8093036102a2576040519261008484610946565b3384526040519161009483610946565b6004356001600160a01b038116810361029e5783526024356001600160a01b038116810361029e57602084015260443562ffffff8116810361029e5760408401526064358060020b810361029e5760608401526084356001600160a01b038116810361029e5791839161018d9693608087960152602084019283526040840190815260608401918252610148608085019360e43585526040519560018060a01b039051166020870152516040860190610998565b5160020b60e08401525160020b61010083015251610120820152610120815261017361014082610962565b604051809481926348c8949160e01b83526004830161090e565b0381837f00000000000000000000000000000000000000000000000000000000000000006001600160a01b03165af19182156102915781926101e9575b506020828051810103126101e657602080830151604051908152f35b80fd5b9091503d8083833e6101fb8183610962565b8101906020818303126102755780519067ffffffffffffffff821161028d570181601f8201121561027557805167ffffffffffffffff811161027957908391604051936102526020601f19601f8501160186610962565b81855260208284010111610275578060208093018386015e83010152905f6101ca565b8280fd5b634e487b7160e01b84526041600452602484fd5b8380fd5b50604051903d90823e3d90fd5b8480fd5b5080fd5b50346101e657806003193601126101e6576040517f00000000000000000000000000000000000000000000000000000000000000006001600160a01b03168152602090f35b90503461088e57602036600319011261088e576004359067ffffffffffffffff821161088e573660238301121561088e57816004013567ffffffffffffffff811161088e57820136602482011161088e577f00000000000000000000000000000000000000000000000000000000000000006001600160a01b031691338390036108da57506101208382031261088e5760a060246040519261038c84610946565b610397828701610984565b845285900301604319011261088e57604051926103b384610946565b6103bf60448201610984565b84526103cd60648201610984565b6020850152608481013562ffffff8116810361088e5760408501526103f460a48201610938565b606085015260c48101356001600160a01b038116810361088e576080850152602082019084825261042760e48201610938565b9081604085015261012461043e6101048301610938565b91826060870152013590816080860152604051926080840184811067ffffffffffffffff8211176108c65760405260020b8352602083019060020b81526040830191825260608301925f84526104a560405198632d35e7ed60e11b8a5260048a0190610998565b5160020b60a48801525160020b60c48701525160e4860152516101048501526101406101248501525f610144850152604084610164815f875af1938415610883575f94610892575b50848460801d85600f0b9080600f0b5f8112610787575b839081841261063c575b136105c9575b5013610547575b6105438460405190602082015260208152610537604082610962565b6040519182918261090e565b0390f35b516020015190516001600160a01b0390811692859290911690803b15610275576105939383604051809681958294630b0d9c0960e01b84528a6001600160801b03169160048501610a27565b03925af180156105be576105a9575b808061051b565b6105b4838092610962565b6102a257816105a2565b6040513d85823e3d90fd5b83515185516001600160a01b03918216929116873b1561029e57849161060d6040519485938493630b0d9c0960e01b85526001600160801b03169160048501610a27565b0381838a5af19081156105be578391610627575b50610514565b8161063191610962565b6102a257815f610621565b8551602001519091506001600160a01b0316873b1561029e5760405190632961046560e21b825260048201528481602481838c5af190811561073a578591610772575b5050845160209081015187516106cf92916001600160a01b0391821691168a886106a8896109db565b6040516323b872dd60e01b8152968795869485936001600160801b03169160048501610a27565b03925af1801561073a57610745575b50604051630476982d60e21b815290602082600481888c5af191821561073a57859261070b575b5061050e565b61072c9060203d602011610733575b6107248183610962565b810190610a51565b505f610705565b503d61071a565b6040513d87823e3d90fd5b6107669060203d60201161076b575b61075e8183610962565b810190610a0f565b6106de565b503d610754565b8161077c91610962565b61028d57835f61067f565b84515192935090916001600160a01b0316863b1561088e5760405190632961046560e21b825260048201525f81602481838b5af180156108835761086a575b50835151855189949392916107f0916020916001600160a01b0391821691168a886106a8886109db565b03925af1801561073a5761084d575b50604051630476982d60e21b815290602082600481888c5af191821561073a57859261082e575b509050610504565b6108469060203d602011610733576107248183610962565b505f610826565b6108659060203d60201161076b5761075e8183610962565b6107ff565b61087991939298505f90610962565b5f9690915f6107c6565b6040513d5f823e3d90fd5b5f80fd5b9093506040813d6040116108be575b816108ae60409383610962565b8101031261088e5751925f6104ed565b3d91506108a1565b634e487b7160e01b5f52604160045260245ffd5b62461bcd60e51b815260206004820152600f60248201526e2737ba102837b7b626b0b730b3b2b960891b6044820152606490fd5b602060409281835280519182918282860152018484015e5f828201840152601f01601f1916010190565b35908160020b820361088e57565b60a0810190811067ffffffffffffffff8211176108c657604052565b90601f8019910116810190811067ffffffffffffffff8211176108c657604052565b35906001600160a01b038216820361088e57565b80516001600160a01b03908116835260208083015182169084015260408083015162ffffff169084015260608083015160020b9084015260809182015116910152565b600f0b6f7fffffffffffffffffffffffffffffff1981146109fb575f0390565b634e487b7160e01b5f52601160045260245ffd5b9081602091031261088e5751801515810361088e5790565b6001600160a01b039182168152911660208201526001600160801b03909116604082015260600190565b9081602091031261088e57519056fea2646970667358221220cdad140627c7481c4c297d588268458f810c6fd6d85bcdef2a2b617c415781c664736f6c634300081a003300000000000000000000000005e73354cfdd6745c338b50bcfdfa3aa6fa03408",
        "nonce": "0x198",
        "chainId": "0x14a34"
      },
      "additionalContracts": [],
      "isFixedGasLimit": false
    },
    {
      "hash": "0xc33730830c283e3e022394e7b986cafae246925a28ab164ba29e98d06e06132e",
      "transactionType": "CALL",
      "contractName": null,
      "contractAddress": "0x944a6d90b3111884cccbfcc45b381b7c864d7943",
      "function": "approve(address,uint256)",
      "arguments": [
        "0xDEC4114c296CE88eE38C63607f3Aabe46B40fEd2",
        "115792089237316195423570985008687907853269984665640564039457584007913129639935"
      ],
      "transaction": {
        "from": "0x1c2f3137e71dec33c6111cfeb7f58b8389f9ff21",
        "to": "0x944a6d90b3111884cccbfcc45b381b7c864d7943",
        "gas": "0xf9e5",
        "value": "0x0",
        "input": "0x095ea7b3000000000000000000000000dec4114c296ce88ee38c63607f3aabe46b40fed2ffffffffffffffffffffffffffffffffffffffffffffffffffffffffffffffff",
        "nonce": "0x199",
        "chainId": "0x14a34"
      },
      "additionalContracts": [],
      "isFixedGasLimit": false
    },
    {
      "hash": "0x11e3af72f71209d14536d9f806d6b255a28a31aee19fb2680e3199a5a11df04d",
      "transactionType": "CALL",
      "contractName": null,
      "contractAddress": "0xce728786975c72711e810adcd9bc233a2a55d7c1",
      "function": "approve(address,uint256)",
      "arguments": [
        "0xDEC4114c296CE88eE38C63607f3Aabe46B40fEd2",
        "115792089237316195423570985008687907853269984665640564039457584007913129639935"
      ],
      "transaction": {
        "from": "0x1c2f3137e71dec33c6111cfeb7f58b8389f9ff21",
        "to": "0xce728786975c72711e810adcd9bc233a2a55d7c1",
        "gas": "0xf9e5",
        "value": "0x0",
        "input": "0x095ea7b3000000000000000000000000dec4114c296ce88ee38c63607f3aabe46b40fed2ffffffffffffffffffffffffffffffffffffffffffffffffffffffffffffffff",
        "nonce": "0x19a",
        "chainId": "0x14a34"
      },
      "additionalContracts": [],
      "isFixedGasLimit": false
    },
    {
      "hash": "0xb87c73f31401c30f29ac44fbaefe496dfa37ed7ce27640cba12a318e1893e771",
      "transactionType": "CALL",
      "contractName": "BaseSepoliaLiquidityHelper",
      "contractAddress": "0xdec4114c296ce88ee38c63607f3aabe46b40fed2",
      "function": "addLiquidity((address,address,uint24,int24,address),int24,int24,int256)",
      "arguments": [
        "(0x944a6D90b3111884CcCbfcc45B381b7C864D7943, 0xCE728786975c72711e810aDCD9BC233A2a55d7C1, 500, 10, 0x906E3e24C04f6b6B5b6743BB77d0FCBE4d87C040)",
        "-100",
        "100",
        "100000000000"
      ],
      "transaction": {
        "from": "0x1c2f3137e71dec33c6111cfeb7f58b8389f9ff21",
        "to": "0xdec4114c296ce88ee38c63607f3aabe46b40fed2",
        "gas": "0x63a5b",
        "value": "0x0",
        "input": "0xe2e6fcbe000000000000000000000000944a6d90b3111884cccbfcc45b381b7c864d7943000000000000000000000000ce728786975c72711e810adcd9bc233a2a55d7c100000000000000000000000000000000000000000000000000000000000001f4000000000000000000000000000000000000000000000000000000000000000a000000000000000000000000906e3e24c04f6b6b5b6743bb77d0fcbe4d87c040ffffffffffffffffffffffffffffffffffffffffffffffffffffffffffffff9c0000000000000000000000000000000000000000000000000000000000000064000000000000000000000000000000000000000000000000000000174876e800",
        "nonce": "0x19b",
        "chainId": "0x14a34"
      },
      "additionalContracts": [],
      "isFixedGasLimit": false
    }
  ],
  "receipts": [
    {
      "status": "0x1",
      "cumulativeGasUsed": "0xc8a6c",
      "logs": [],
      "logsBloom": "0x00000000000000000000000000000000000000000000000000000000000000000000000000000000000000000000000000000000000000000000000000000000000000000000000000000000000000000000000000000000000000000000000000000000000000000000000000000000000000000000000000000000000000000000000000000000000000000000000000000000000000000000000000000000000000000000000000000000000000000000000000000000000000000000000000000000000000000000000000000000000000000000000000000000000000000000000000000000000000000000000000000000000000000000000000000000",
      "type": "0x2",
      "transactionHash": "0x11e3af72f71209d14536d9f806d6b255a28a31aee19fb2680e3199a5a11df04d",
      "transactionIndex": "0x4",
      "blockHash": "0x7a0a2f6b3fa5c07f14ef49986155ed3950302e617f902e721ddb7ca02ce863ca",
      "blockNumber": "0x237ac75",
      "gasUsed": "0x9c6de",
      "effectiveGasPrice": "0x124f80",
      "blobGasUsed": "0x8bc68",
      "from": "0x1c2f3137e71dec33c6111cfeb7f58b8389f9ff21",
      "to": null,
      "contractAddress": "0xdec4114c296ce88ee38c63607f3aabe46b40fed2",
      "daFootprintGasScalar": "0x138",
      "l1BaseFeeScalar": "0x44d",
      "l1BlobBaseFee": "0x3700fc0",
      "l1BlobBaseFeeScalar": "0xa118b",
      "l1Fee": "0x71aff2c2d",
      "l1GasPrice": "0x40fce6fb",
      "l1GasUsed": "0x72b5"
    },
    {
      "status": "0x1",
      "cumulativeGasUsed": "0xd3f58",
      "logs": [
        {
          "address": "0x944a6d90b3111884cccbfcc45b381b7c864d7943",
          "topics": [
            "0x8c5be1e5ebec7d5bd14f71427d1e84f3dd0314c0f7b2291e5b200ac8c7c3b925",
            "0x0000000000000000000000001c2f3137e71dec33c6111cfeb7f58b8389f9ff21",
            "0x000000000000000000000000dec4114c296ce88ee38c63607f3aabe46b40fed2"
          ],
          "data": "0xffffffffffffffffffffffffffffffffffffffffffffffffffffffffffffffff",
          "blockHash": "0x7a0a2f6b3fa5c07f14ef49986155ed3950302e617f902e721ddb7ca02ce863ca",
          "blockNumber": "0x237ac75",
          "blockTimestamp": "0x6982b7ca",
          "transactionHash": "0xc33730830c283e3e022394e7b986cafae246925a28ab164ba29e98d06e06132e",
          "transactionIndex": "0x5",
          "logIndex": "0x0",
          "removed": false
        }
      ],
      "logsBloom": "0x00000000001000000000000000000000000000000000000200000000000000000000000000000000000000000000000000000000000000000040000000200000000000000000000000000000000000400000000000000000000000000000000000000000000000000000400000000000000000000000000000000000000000000000000000000000000000000000000000000000000200004000000000000000020000000000000000000000000000000000000000000000000000000000000000000000000000000000000000000000000000000000000000000000000004000010000000000000000000000000000000000000000000000000000008000000",
      "type": "0x2",
      "transactionHash": "0xc33730830c283e3e022394e7b986cafae246925a28ab164ba29e98d06e06132e",
      "transactionIndex": "0x5",
      "blockHash": "0x7a0a2f6b3fa5c07f14ef49986155ed3950302e617f902e721ddb7ca02ce863ca",
      "blockNumber": "0x237ac75",
      "gasUsed": "0xb4ec",
      "effectiveGasPrice": "0x124f80",
      "blobGasUsed": "0x79e0",
      "from": "0x1c2f3137e71dec33c6111cfeb7f58b8389f9ff21",
      "to": "0x944a6d90b3111884cccbfcc45b381b7c864d7943",
      "contractAddress": null,
      "daFootprintGasScalar": "0x138",
      "l1BaseFeeScalar": "0x44d",
      "l1BlobBaseFee": "0x3700fc0",
      "l1BlobBaseFeeScalar": "0xa118b",
      "l1Fee": "0x71aff2c2d",
      "l1GasPrice": "0x40fce6fb",
      "l1GasUsed": "0x640"
    },
    {
      "status": "0x1",
      "cumulativeGasUsed": "0xdf444",
      "logs": [
        {
          "address": "0xce728786975c72711e810adcd9bc233a2a55d7c1",
          "topics": [
            "0x8c5be1e5ebec7d5bd14f71427d1e84f3dd0314c0f7b2291e5b200ac8c7c3b925",
            "0x0000000000000000000000001c2f3137e71dec33c6111cfeb7f58b8389f9ff21",
            "0x000000000000000000000000dec4114c296ce88ee38c63607f3aabe46b40fed2"
          ],
          "data": "0xffffffffffffffffffffffffffffffffffffffffffffffffffffffffffffffff",
          "blockHash": "0x7a0a2f6b3fa5c07f14ef49986155ed3950302e617f902e721ddb7ca02ce863ca",
          "blockNumber": "0x237ac75",
          "blockTimestamp": "0x6982b7ca",
          "transactionHash": "0x90dae2a7c951d0275a04bf91b21c180620c5e07f87b263337d4269ac01732367",
          "transactionIndex": "0x6",
          "logIndex": "0x1",
          "removed": false
        }
      ],
      "logsBloom": "0x00000000001000000000000000000000000000000000000200000000000000000000000000000000000000000000000000000000000000000000000000200000000400000000000000000000000000400000000000000000000000000000000000100000000000000000000000000000000000000000000000000000000000000000000000000000000000000000000000000000000200004000000000000000020000000000000000000000000000000000000000000000000000000000000000000000000000000000000000000000000000000000000000000000400004000010000000000000000000000000000000000000000000000000000000000000",
      "type": "0x2",
      "transactionHash": "0x90dae2a7c951d0275a04bf91b21c180620c5e07f87b263337d4269ac01732367",
      "transactionIndex": "0x6",
      "blockHash": "0x7a0a2f6b3fa5c07f14ef49986155ed3950302e617f902e721ddb7ca02ce863ca",
      "blockNumber": "0x237ac75",
      "gasUsed": "0xb4ec",
      "effectiveGasPrice": "0x124f80",
      "blobGasUsed": "0x79e0",
      "from": "0x1c2f3137e71dec33c6111cfeb7f58b8389f9ff21",
      "to": "0xce728786975c72711e810adcd9bc233a2a55d7c1",
      "contractAddress": null,
      "daFootprintGasScalar": "0x138",
      "l1BaseFeeScalar": "0x44d",
      "l1BlobBaseFee": "0x3700fc0",
      "l1BlobBaseFeeScalar": "0xa118b",
      "l1Fee": "0x71aff2c2d",
      "l1GasPrice": "0x40fce6fb",
      "l1GasUsed": "0x640"
    },
    {
      "status": "0x1",
      "cumulativeGasUsed": "0x12366d",
      "logs": [
        {
          "address": "0x05e73354cfdd6745c338b50bcfdfa3aa6fa03408",
          "topics": [
            "0xf208f4912782fd25c7f114ca3723a2d5dd6f3bcc3ac8db5af63baa85f711d5ec",
            "0xfa04fc73b38451a87f430c1a36bc1533d3216483699b1494ed77597ba1cd9912",
            "0x000000000000000000000000dec4114c296ce88ee38c63607f3aabe46b40fed2"
          ],
          "data": "0xffffffffffffffffffffffffffffffffffffffffffffffffffffffffffffff9c0000000000000000000000000000000000000000000000000000000000000064000000000000000000000000000000000000000000000000000000174876e8000000000000000000000000000000000000000000000000000000000000000000",
          "blockHash": "0x7a0a2f6b3fa5c07f14ef49986155ed3950302e617f902e721ddb7ca02ce863ca",
          "blockNumber": "0x237ac75",
          "blockTimestamp": "0x6982b7ca",
          "transactionHash": "0xb87c73f31401c30f29ac44fbaefe496dfa37ed7ce27640cba12a318e1893e771",
          "transactionIndex": "0x7",
          "logIndex": "0x2",
          "removed": false
        },
        {
          "address": "0x944a6d90b3111884cccbfcc45b381b7c864d7943",
          "topics": [
            "0xddf252ad1be2c89b69c2b068fc378daa952ba7f163c4a11628f55a4df523b3ef",
            "0x0000000000000000000000001c2f3137e71dec33c6111cfeb7f58b8389f9ff21",
            "0x00000000000000000000000005e73354cfdd6745c338b50bcfdfa3aa6fa03408"
          ],
          "data": "0x000000000000000000000000000000000000000000000000000000001db9f928",
          "blockHash": "0x7a0a2f6b3fa5c07f14ef49986155ed3950302e617f902e721ddb7ca02ce863ca",
          "blockNumber": "0x237ac75",
          "blockTimestamp": "0x6982b7ca",
          "transactionHash": "0xb87c73f31401c30f29ac44fbaefe496dfa37ed7ce27640cba12a318e1893e771",
          "transactionIndex": "0x7",
          "logIndex": "0x3",
          "removed": false
        },
        {
          "address": "0xce728786975c72711e810adcd9bc233a2a55d7c1",
          "topics": [
            "0xddf252ad1be2c89b69c2b068fc378daa952ba7f163c4a11628f55a4df523b3ef",
            "0x0000000000000000000000001c2f3137e71dec33c6111cfeb7f58b8389f9ff21",
            "0x00000000000000000000000005e73354cfdd6745c338b50bcfdfa3aa6fa03408"
          ],
          "data": "0x000000000000000000000000000000000000000000000000000000001db9f928",
          "blockHash": "0x7a0a2f6b3fa5c07f14ef49986155ed3950302e617f902e721ddb7ca02ce863ca",
          "blockNumber": "0x237ac75",
          "blockTimestamp": "0x6982b7ca",
          "transactionHash": "0xb87c73f31401c30f29ac44fbaefe496dfa37ed7ce27640cba12a318e1893e771",
          "transactionIndex": "0x7",
          "logIndex": "0x4",
          "removed": false
        }
      ],
      "logsBloom": "0x00000000001000000000000000000000000000000000000200000000000000000000000100000000000000000000000000000000000000000040000080000000000400000010000000000008000000400000000000100000000000000000000000100000000000000000400000000000000000000000000000000010000000000000000005000000000000000000000000000000000200004000000000040000000004000000000000000000000000000000000000000000000000000000000000000002001000000000000000000000000000000000000000000000400004000000000000000000000000000800000004000000000000000000000008200000",
      "type": "0x2",
      "transactionHash": "0xb87c73f31401c30f29ac44fbaefe496dfa37ed7ce27640cba12a318e1893e771",
      "transactionIndex": "0x7",
      "blockHash": "0x7a0a2f6b3fa5c07f14ef49986155ed3950302e617f902e721ddb7ca02ce863ca",
      "blockNumber": "0x237ac75",
      "gasUsed": "0x44229",
      "effectiveGasPrice": "0x124f80",
      "blobGasUsed": "0xbe20",
      "from": "0x1c2f3137e71dec33c6111cfeb7f58b8389f9ff21",
      "to": "0xdec4114c296ce88ee38c63607f3aabe46b40fed2",
      "contractAddress": null,
      "daFootprintGasScalar": "0x138",
      "l1BaseFeeScalar": "0x44d",
      "l1BlobBaseFee": "0x3700fc0",
      "l1BlobBaseFeeScalar": "0xa118b",
      "l1Fee": "0x71aff2c2d",
      "l1GasPrice": "0x40fce6fb",
      "l1GasUsed": "0x9c8"
    }
  ],
  "libraries": [],
  "pending": [],
  "returns": {},
  "timestamp": 1770174408138,
  "chain": 84532,
  "commit": "2246f28"
}