{
  "transactions": [
    {
      "hash": "0xac556018de311e72005a405ed662b1d4fe61f319e2ad50ed73136e0dcd7f5941",
      "transactionType": "CALL",
      "contractName": null,
      "contractAddress": "0x94a9d9ac8a22534e3faca9f4e7f2e2cf85d5e4c8",
      "function": "approve(address,uint256)",
      "arguments": [
        "0x855B735aC495f06E46cf01A1607706dF43c82348",
        "10000000"
      ],
      "transaction": {
        "from": "0x1c2f3137e71dec33c6111cfeb7f58b8389f9ff21",
        "to": "0x94a9d9ac8a22534e3faca9f4e7f2e2cf85d5e4c8",
        "gas": "0xf959",
        "value": "0x0",
        "input": "0x095ea7b3000000000000000000000000855b735ac495f06e46cf01a1607706df43c823480000000000000000000000000000000000000000000000000000000000989680",
        "nonce": "0x1bf",
        "chainId": "0xaa36a7"
      },
      "additionalContracts": [],
      "isFixedGasLimit": false
    },
    {
      "hash": "0xc08bd86d7b0c6699723fadb926610577a0d1be20ce3ca78cd8b59ef4cfec5c0a",
      "transactionType": "CALL",
      "contractName": null,
      "contractAddress": "0x855b735ac495f06e46cf01a1607706df43c82348",
      "function": "executeIntent((address,address,address,uint256,uint256,uint256,bytes32,uint256),bytes,(address,address,uint24,int24,address),bytes)",
      "arguments": [
        "(0x1C2F3137E71dEC33c6111cFeB7F58B8389F9fF21, 0x94a9D9AC8a22534E3FaCa9F4e7F2E2cf85d5E4C8, 0xFF34B3d4Aee8ddCd6F9AFFFB6Fe49bD371b8a357, 10000000, 500, 1769914488, 0x9fc9212705a775dc1267b361b43ccda833c07986473da79558651f874598b96c, 0)",
        "0x8b2f93d3151b34583a98cd497eaf6a5166d9df9dde099e4876520816538bc20262389962217f9fdbd5180e28f34d36a2164b639158c14001b2abcfcddace77aa1c",
        "(0x94a9D9AC8a22534E3FaCa9F4e7F2E2cf85d5E4C8, 0xFF34B3d4Aee8ddCd6F9AFFFB6Fe49bD371b8a357, 500, 10, 0x15d3b7CbC9463f92a88cE7B1B384277DA741C040)",
        "0x0000000000000000000000000000000000000000000000000000000000000020000000000000000000000000000000000000000000000000000000000000000d746573742d71756f74652d696400000000000000000000000000000000000000"
      ],
      "transaction": {
        "from": "0x1c2f3137e71dec33c6111cfeb7f58b8389f9ff21",
        "to": "0x855b735ac495f06e46cf01a1607706df43c82348",
        "gas": "0x2d6081",
        "value": "0x0",
        "input": "0x1c6c0fd40000000000000000000000001c2f3137e71dec33c6111cfeb7f58b8389f9ff2100000000000000000000000094a9d9ac8a22534e3faca9f4e7f2e2cf85d5e4c8000000000000000000000000ff34b3d4aee8ddcd6f9afffb6fe49bd371b8a357000000000000000000000000000000000000000000000000000000000098968000000000000000000000000000000000000000000000000000000000000001f400000000000000000000000000000000000000000000000000000000697ec0789fc9212705a775dc1267b361b43ccda833c07986473da79558651f874598b96c000000000000000000000000000000000000000000000000000000000000000000000000000000000000000000000000000000000000000000000000000001e000000000000000000000000094a9d9ac8a22534e3faca9f4e7f2e2cf85d5e4c8000000000000000000000000ff34b3d4aee8ddcd6f9afffb6fe49bd371b8a35700000000000000000000000000000000000000000000000000000000000001f4000000000000000000000000000000000000000000000000000000000000000a00000000000000000000000015d3b7cbc9463f92a88ce7b1b384277da741c040000000000000000000000000000000000000000000000000000000000000026000000000000000000000000000000000000000000000000000000000000000418b2f93d3151b34583a98cd497eaf6a5166d9df9dde099e4876520816538bc20262389962217f9fdbd5180e28f34d36a2164b639158c14001b2abcfcddace77aa1c0000000000000000000000000000000000000000000000000000000000000000000000000000000000000000000000000000000000000000000000000000600000000000000000000000000000000000000000000000000000000000000020000000000000000000000000000000000000000000000000000000000000000d746573742d71756f74652d696400000000000000000000000000000000000000",
        "nonce": "0x1c0",
        "chainId": "0xaa36a7"
      },
      "additionalContracts": [],
      "isFixedGasLimit": false
    }
  ],
  "receipts": [
    {
      "status": "0x1",
      "cumulativeGasUsed": "0x7602b4",
      "logs": [
        {
          "address": "0x94a9d9ac8a22534e3faca9f4e7f2e2cf85d5e4c8",
          "topics": [
            "0x8c5be1e5ebec7d5bd14f71427d1e84f3dd0314c0f7b2291e5b200ac8c7c3b925",
            "0x0000000000000000000000001c2f3137e71dec33c6111cfeb7f58b8389f9ff21",
            "0x000000000000000000000000855b735ac495f06e46cf01a1607706df43c82348"
          ],
          "data": "0x0000000000000000000000000000000000000000000000000000000000989680",
          "blockHash": "0xacf0717770cf018ef2d855fdf1b3c6832eb8174d5754486509e6209e92b11ed3",
          "blockNumber": "0x9b1f46",
          "blockTimestamp": "0x697eb280",
          "transactionHash": "0xac556018de311e72005a405ed662b1d4fe61f319e2ad50ed73136e0dcd7f5941",
          "transactionIndex": "0x43",
          "logIndex": "0x53",
          "removed": false
        }
      ],
      "logsBloom": "0x00000000000000000000000000000000000000000000000200000000000000000000000000000000000000000000000000000000000000000000000000200000000080000000000000000000000000400000000000000000000008000000000000000000000000000000000000000000000000000000000000000000000000000000000000000000000000000000000000000000000000004000000000000000020000000100000000004000000000000000000000000000000000000000000000000000000000000000000000000000000000000000000000000000000004000010000100000000000000000000000000000000000000000000000000000000",
      "type": "0x2",
      "transactionHash": "0xac556018de311e72005a405ed662b1d4fe61f319e2ad50ed73136e0dcd7f5941",
      "transactionIndex": "0x43",
      "blockHash": "0xacf0717770cf018ef2d855fdf1b3c6832eb8174d5754486509e6209e92b11ed3",
      "blockNumber": "0x9b1f46",
      "gasUsed": "0xb487",
      "effectiveGasPrice": "0x442e4a17",
      "from": "0x1c2f3137e71dec33c6111cfeb7f58b8389f9ff21",
      "to": "0x94a9d9ac8a22534e3faca9f4e7f2e2cf85d5e4c8",
      "contractAddress": null
    },
    {
      "status": "0x1",
      "cumulativeGasUsed": "0x95099d",
      "logs": [
        {
          "address": "0x94a9d9ac8a22534e3faca9f4e7f2e2cf85d5e4c8",
          "topics": [
            "0xddf252ad1be2c89b69c2b068fc378daa952ba7f163c4a11628f55a4df523b3ef",
            "0x0000000000000000000000001c2f3137e71dec33c6111cfeb7f58b8389f9ff21",
            "0x000000000000000000000000855b735ac495f06e46cf01a1607706df43c82348"
          ],
          "data": "0x0000000000000000000000000000000000000000000000000000000000989680",
          "blockHash": "0xacf0717770cf018ef2d855fdf1b3c6832eb8174d5754486509e6209e92b11ed3",
          "blockNumber": "0x9b1f46",
          "blockTimestamp": "0x697eb280",
          "transactionHash": "0xc08bd86d7b0c6699723fadb926610577a0d1be20ce3ca78cd8b59ef4cfec5c0a",
          "transactionIndex": "0x44",
          "logIndex": "0x54",
          "removed": false
        },
        {
          "address": "0x94a9d9ac8a22534e3faca9f4e7f2e2cf85d5e4c8",
          "topics": [
            "0x8c5be1e5ebec7d5bd14f71427d1e84f3dd0314c0f7b2291e5b200ac8c7c3b925",
            "0x0000000000000000000000001c2f3137e71dec33c6111cfeb7f58b8389f9ff21",
            "0x000000000000000000000000855b735ac495f06e46cf01a1607706df43c82348"
          ],
          "data": "0x0000000000000000000000000000000000000000000000000000000000000000",
          "blockHash": "0xacf0717770cf018ef2d855fdf1b3c6832eb8174d5754486509e6209e92b11ed3",
          "blockNumber": "0x9b1f46",
          "blockTimestamp": "0x697eb280",
          "transactionHash": "0xc08bd86d7b0c6699723fadb926610577a0d1be20ce3ca78cd8b59ef4cfec5c0a",
          "transactionIndex": "0x44",
          "logIndex": "0x55",
          "removed": false
        },
        {
          "address": "0x94a9d9ac8a22534e3faca9f4e7f2e2cf85d5e4c8",
          "topics": [
            "0x8c5be1e5ebec7d5bd14f71427d1e84f3dd0314c0f7b2291e5b200ac8c7c3b925",
            "0x000000000000000000000000855b735ac495f06e46cf01a1607706df43c82348",
            "0x000000000000000000000000e03a1074c86cfedd5c142c4f04f1a1536e203543"
          ],
          "data": "0x0000000000000000000000000000000000000000000000000000000000989680",
          "blockHash": "0xacf0717770cf018ef2d855fdf1b3c6832eb8174d5754486509e6209e92b11ed3",
          "blockNumber": "0x9b1f46",
          "blockTimestamp": "0x697eb280",
          "transactionHash": "0xc08bd86d7b0c6699723fadb926610577a0d1be20ce3ca78cd8b59ef4cfec5c0a",
          "transactionIndex": "0x44",
          "logIndex": "0x56",
          "removed": false
        },
        {
          "address": "0xe03a1074c86cfedd5c142c4f04f1a1536e203543",
          "topics": [
            "0x40e9cecb9f5f1f1c5b9c97dec2917b7ee92e57ba5563708daca94dd84ad7112f",
            "0xfeb6a37a9a3f5b380ceaf46693c10095b8539f228f07a4c02566cc937d76be52",
            "0x000000000000000000000000855b735ac495f06e46cf01a1607706df43c82348"
          ],
          "data": "0x0000000000000000000000000000000000000000000000000000000000000000000000000000000000000000000000000000000000000000000000000000000000000000000000000000000000000000000000000000000000000001000276a40000000000000000000000000000000000000000000000000000000000000000fffffffffffffffffffffffffffffffffffffffffffffffffffffffffff2761800000000000000000000000000000000000000000000000000000000000001f4",
          "blockHash": "0xacf0717770cf018ef2d855fdf1b3c6832eb8174d5754486509e6209e92b11ed3",
          "blockNumber": "0x9b1f46",
          "blockTimestamp": "0x697eb280",
          "transactionHash": "0xc08bd86d7b0c6699723fadb926610577a0d1be20ce3ca78cd8b59ef4cfec5c0a",
          "transactionIndex": "0x44",
          "logIndex": "0x57",
          "removed": false
        },
        {
          "address": "0x15d3b7cbc9463f92a88ce7b1b384277da741c040",
          "topics": [
            "0x56a605c50ce408b1846a6a1117b72d4b801f498a860fe9c66adfd704cc8f731a",
            "0x9fc9212705a775dc1267b361b43ccda833c07986473da79558651f874598b96c",
            "0x4541a001988a0044d06f9dfc19a275e1f8b953ce42f3b199b832a6c187674234",
            "0x000000000000000000000000855b735ac495f06e46cf01a1607706df43c82348"
          ],
          "data": "0x000000000000000000000000000000000000000000000000000000000000000000000000000000000000000000000000000000000000000000000000000000000000000000000000000000000000000000000000000000000000000000002710000000000000000000000000000000000000000000000000000000000000000000000000000000000000000000000000000000000000000000000000697eb280",
          "blockHash": "0xacf0717770cf018ef2d855fdf1b3c6832eb8174d5754486509e6209e92b11ed3",
          "blockNumber": "0x9b1f46",
          "blockTimestamp": "0x697eb280",
          "transactionHash": "0xc08bd86d7b0c6699723fadb926610577a0d1be20ce3ca78cd8b59ef4cfec5c0a",
          "transactionIndex": "0x44",
          "logIndex": "0x58",
          "removed": false
        },
        {
          "address": "0x855b735ac495f06e46cf01a1607706df43c82348",
          "topics": [
            "0x3c5bf2660d1472f467a143f66bc9e416b4e864287f584ea0d47e083efa13ae49",
            "0x80175f99bdd3dc4074e47aa898506da1a423b2d9f2421e0b673d7c22c50011bc",
            "0x0000000000000000000000001c2f3137e71dec33c6111cfeb7f58b8389f9ff21",
            "0x9fc9212705a775dc1267b361b43ccda833c07986473da79558651f874598b96c"
          ],
          "data": "0x00000000000000000000000000000000000000000000000000000000009896800000000000000000000000000000000000000000000000000000000000000000",
          "blockHash": "0xacf0717770cf018ef2d855fdf1b3c6832eb8174d5754486509e6209e92b11ed3",
          "blockNumber": "0x9b1f46",
          "blockTimestamp": "0x697eb280",
          "transactionHash": "0xc08bd86d7b0c6699723fadb926610577a0d1be20ce3ca78cd8b59ef4cfec5c0a",
          "transactionIndex": "0x44",
          "logIndex": "0x59",
          "removed": false
        }
      ],
      "logsBloom": "0x10000000000000000008000000000000000000000000000200000000000008000000000000000000000000000000000000000100040200000000000000200000000080000000000000004008000008400000000000000060000208000000000000000040000000000001000080000000000000000000100100000010000000000000800000000000000010000000000000000000008000604000000000000000020000000100000000004000100000000000000000000000000000000000000000010002000080000000000000000000001000000000000000001000000004001010200900000000004000000000000000000000000000000000080000004000",
      "type": "0x2",
      "transactionHash": "0xc08bd86d7b0c6699723fadb926610577a0d1be20ce3ca78cd8b59ef4cfec5c0a",
      "transactionIndex": "0x44",
      "blockHash": "0xacf0717770cf018ef2d855fdf1b3c6832eb8174d5754486509e6209e92b11ed3",
      "blockNumber": "0x9b1f46",
      "gasUsed": "0x1f06e9",
      "effectiveGasPrice": "0x442e4a17",
      "from": "0x1c2f3137e71dec33c6111cfeb7f58b8389f9ff21",
      "to": "0x855b735ac495f06e46cf01a1607706df43c82348",
      "contractAddress": null
    }
  ],
  "libraries": [],
  "pending": [],
  "returns": {},
  "timestamp": 1769910913575,
  "chain": 11155111,
  "commit": "1b7a2a8"
}