{
  "transactions": [
    {
      "hash": "0xfebb2aeb84ea28a08507bb8f6947f420af03b6c9abdcbfeb430fbed41de0ee85",
      "transactionType": "CREATE",
      "contractName": "IntentRouter",
      "contractAddress": "0xd1bce480082e0671c36609cecddff93d543dcd84",
      "function": null,
      "arguments": [
        "0xE03A1074c86CFeDd5C142C4F04F1a1536e203543"
      ],
      "transaction": {
        "from": "0x1c2f3137e71dec33c6111cfeb7f58b8389f9ff21",
        "gas": "0x1d868e",
        "value": "0x0",
        "input": "0x61018080604052346101f857602081611e31803803809161002082856101fc565b8339810103126101f857516001600160a01b038116908190036101f85760405161004b6040826101fc565b6015815260208101907f4f696b6f6e6f6d6f73496e74656e74526f7574657200000000000000000000008252604051916100866040846101fc565b600183526020830191603160f81b835261009f81610233565b610120526100ac846103c9565b61014052519020918260e05251902080610100524660a0526040519060208201927f8b73c3c69bb8fe3d512ecc4cf759cc79239f7b179b0ffacaa9a75d522b39400f8452604083015260608201524660808201523060a082015260a0815261011560c0826101fc565b5190206080523060c05233156101e55760028054336001600160a01b0319821681179092556040519291906001600160a01b03167f8be0079c531659141344cd1fd0a4f28419497f9722a3daafe3b4186f6b6457e05f80a36101605261192f90816105028239608051816112e2015260a05181611399015260c051816112ac015260e0518161133101526101005181611357015261012051816105ae015261014051816105d70152610160518181816102170152818161079701528181610a6c015281816116ac015261172e0152f35b631e4fbdf760e01b5f525f60045260245ffd5b5f80fd5b601f909101601f19168101906001600160401b0382119082101761021f57604052565b634e487b7160e01b5f52604160045260245ffd5b908151602081105f146102ad575090601f81511161026d57602081519101516020821061025e571790565b5f198260200360031b1b161790565b604460209160405192839163305a27a960e01b83528160048401528051918291826024860152018484015e5f828201840152601f01601f19168101030190fd5b6001600160401b03811161021f575f54600181811c911680156103bf575b60208210146103ab57601f8111610379575b50602092601f821160011461031a57928192935f9261030f575b50508160011b915f199060031b1c1916175f5560ff90565b015190505f806102f7565b601f198216935f8052805f20915f5b8681106103615750836001959610610349575b505050811b015f5560ff90565b01515f1960f88460031b161c191690555f808061033c565b91926020600181928685015181550194019201610329565b5f8052601f60205f20910160051c810190601f830160051c015b8181106103a057506102dd565b5f8155600101610393565b634e487b7160e01b5f52602260045260245ffd5b90607f16906102cb565b908151602081105f146103f4575090601f81511161026d57602081519101516020821061025e571790565b6001600160401b03811161021f57600154600181811c911680156104f7575b60208210146103ab57601f81116104c4575b50602092601f821160011461046357928192935f92610458575b50508160011b915f199060031b1c19161760015560ff90565b015190505f8061043f565b601f1982169360015f52805f20915f5b8681106104ac5750836001959610610494575b505050811b0160015560ff90565b01515f1960f88460031b161c191690555f8080610486565b91926020600181928685015181550194019201610473565b60015f52601f60205f20910160051c810190601f830160051c015b8181106104ec5750610425565b5f81556001016104df565b90607f169061041356fe60806040526004361015610011575f80fd5b5f3560e01c8063100f752e14610f2a5780631c6c0fd41461087b5780632d0335ab146106ef5780633644e515146108595780633f4ba83a146107eb5780635c975abb146107c657806362308e8514610782578063715018a6146107275780637ecebe00146106ef5780638456cb591461068e57806384b0196e146105965780638da5cb5b1461056e57806391dd7346146101e4578063b30d45f4146101b5578063cea9d26f146101535763f2fde38b146100c9575f80fd5b3461014f57602036600319011261014f576100e2610f74565b6100ea6113bf565b6001600160a01b0316801561013c57600280546001600160a01b0319811683179091556001600160a01b03167f8be0079c531659141344cd1fd0a4f28419497f9722a3daafe3b4186f6b6457e05f80a3005b631e4fbdf760e01b5f525f60045260245ffd5b5f80fd5b3461014f57606036600319011261014f5761016c610f74565b602435906001600160a01b038216820361014f576101886113bf565b6001600160a01b031680156101a6576101a49160443591611228565b005b63c1ab6dc160e01b5f5260045ffd5b3461014f57602036600319011261014f576004355f526004602052602060ff60405f2054166040519015158152f35b3461014f57602036600319011261014f5760043567ffffffffffffffff811161014f57610215903690600401610f46565b7f00000000000000000000000000000000000000000000000000000000000000006001600160a01b0316903382900361055f5782019160208184031261014f5780359067ffffffffffffffff821161014f570180830391610140831261014f576040519061028282611035565b61028b83610f8a565b825260a0601f1985011261014f57604051936102a685611051565b6102b260208501610f8a565b85526102c060408501610f8a565b6020860152606084013562ffffff8116810361014f57604086015260808401358060020b810361014f57606086015260a0840135906001600160a01b038216820361014f5760609160808701526020840195865260bf19011261014f576040519261032a84611005565b60c0810135801515810361014f57845260e081013560208501526101008101356001600160a01b038116810361014f576040850152604083019384526101208101359067ffffffffffffffff821161014f570185601f8201121561014f575f6020946060946103a46103f69985896103cf973591016110ab565b958691015261040a8751915195604051998a9788968795633cf3645360e21b87526004870190611109565b8051151560a4860152602081015160c4860152604001516001600160a01b031660e4850152565b610120610104840152610124830190610f9e565b03925af1908115610554575f9161051e575b6104b59250518160801d82600f0b9080600f0b5f81125f146104ed575061045f906001600160801b0361045860018060a01b03865116926113e6565b169061172b565b5f8112156104b9576001600160801b0361045861048993602060018060a01b0391015116926113e6565b604051906020820152602081526104a160408261106d565b604051918291602083526020830190610f9e565b0390f35b5f126104c6575b50610489565b602001516104e7906001600160801b038316906001600160a01b03166116aa565b826104c0565b5f126104fa575b5061045f565b8251610518916001600160801b0316906001600160a01b03166116aa565b846104f4565b90506020823d60201161054c575b816105396020938361106d565b8101031261014f576104b591519061041c565b3d915061052c565b6040513d5f823e3d90fd5b63570c108560e11b5f5260045ffd5b3461014f575f36600319011261014f576002546040516001600160a01b039091168152602090f35b3461014f575f36600319011261014f576106326105d27f00000000000000000000000000000000000000000000000000000000000000006114b4565b6105fb7f00000000000000000000000000000000000000000000000000000000000000006115da565b60206106406040519261060e838561106d565b5f84525f368137604051958695600f60f81b875260e08588015260e0870190610f9e565b908582036040870152610f9e565b4660608501523060808501525f60a085015283810360c08501528180845192838152019301915f5b82811061067757505050500390f35b835185528695509381019392810192600101610668565b3461014f575f36600319011261014f576106a66113bf565b6106ae61120a565b6002805460ff60a01b1916600160a01b1790556040513381527f62e78cea01bee320cd4e420270b5ea74000d11b0c9f74754ebdbfc544b05a25890602090a1005b3461014f57602036600319011261014f576001600160a01b03610710610f74565b165f526003602052602060405f2054604051908152f35b3461014f575f36600319011261014f5761073f6113bf565b600280546001600160a01b031981169091555f906001600160a01b03167f8be0079c531659141344cd1fd0a4f28419497f9722a3daafe3b4186f6b6457e08280a3005b3461014f575f36600319011261014f576040517f00000000000000000000000000000000000000000000000000000000000000006001600160a01b03168152602090f35b3461014f575f36600319011261014f57602060ff60025460a01c166040519015158152f35b3461014f575f36600319011261014f576108036113bf565b60025460ff8160a01c161561084a5760ff60a01b19166002556040513381527f5db9ee0a495bf2e6ff9c91a7834c1ba4fdd244a5e8aa4e537bd38aeae4b073aa90602090a1005b638dfc202b60e01b5f5260045ffd5b3461014f575f36600319011261014f5760206108736112a9565b604051908152f35b3461014f5736600319016101e0811261014f576101001361014f576101043567ffffffffffffffff811161014f576108b7903690600401610f46565b60a03661012319011261014f576101c43567ffffffffffffffff811161014f576108e5903690600401610f46565b9290916108f061120a565b6108f861114c565b91825f52600460205260ff60405f205416610f1b5760a4354211610f0c576001600160a01b03610926610fc2565b165f52600360205260405f205460e43503610efd5761097f916109706109769260426109506112a9565b6040519061190160f01b82526002820152876022820152209236916110ab565b90611406565b90929192611440565b6001600160a01b0361098f610fc2565b166001600160a01b0390911603610eee575f818152600460205260409020805460ff191660011790556001600160a01b036109c8610fc2565b165f52600360205260405f2080545f198114610e7c5760010190556001600160a01b036109f3610fd8565b16916109fd610fc2565b9060643593604051926323b872dd60e01b5f5260018060a01b0316600452306024528460445260205f60648180855af160015f5114811615610ecf575b836040525f60605215610ebd57506001600160a01b03610a58610fd8565b63095ea7b360e01b84526001600160a01b037f00000000000000000000000000000000000000000000000000000000000000001660048501819052602485018790529691602091859160449183915f91165af192831561055457610ac393610e90575b5036916110ab565b6020815191012091608435918261271003926127108411610e7c57838302938385041483151715610e7c5760c435936127108211610e6d5761271090604051968660208901526040880152046060860152608085015260808452610b2860a08561106d565b6001600160a01b03610b38610fee565b166001600160a01b03610b49610fd8565b161493610b55836110f9565b958515610e53576401000276a45b60405197610b7089611005565b87895260208901526001600160a01b03166040880152610b8e610fc2565b9660405197610b9c89611035565b6001600160a01b0316885260405192610bb484611051565b610124356001600160a01b038116810361014f578452610144356001600160a01b0381169490939085850361014f578460208201526101643562ffffff8116810361014f576040820152610184358060020b810361014f5760608201526101a4356001600160a01b038116810361014f575f9b610cba610cec95610ca58f98610cc8956080880152602085019687526040850190815260608501928352610c7a60405197889660208089015260018060a01b039051166040880152516060870190611109565b51805115156101008601526020810151610120860152604001516001600160a01b0316610140850152565b51610140610160840152610180830190610f9e565b03601f19810183528261106d565b6040519a8b809481936348c8949160e01b8352602060048401526024830190610f9e565b03925af1968715610554575f97610dd7575b50602087519781808201998a920101031261014f5760209651865f14610dc257610d2a90600f0b6110f9565b955b15610da957505b845f8113610d87575b507f3c5bf2660d1472f467a143f66bc9e416b4e864287f584ea0d47e083efa13ae49905060406001600160a01b03610d72610fc2565b169381519081528688820152a4604051908152f35b610da291610d93610fc2565b906001600160a01b0316611228565b8584610d3c565b506001600160a01b039050610dbc610fee565b16610d33565b610dd19060801d600f0b6110f9565b95610d2c565b9096503d805f833e610de9818361106d565b81019060208183031261014f5780519067ffffffffffffffff821161014f570181601f8201121561014f57805190610e208261108f565b92610e2e604051948561106d565b8284526020838301011161014f57815f9260208093018386015e830101529587610cfe565b73fffd8963efd1fc6a506488495d951d5263988d25610b63565b637444d6d560e01b5f5260045ffd5b634e487b7160e01b5f52601160045260245ffd5b610eb19060203d602011610eb6575b610ea9818361106d565b8101906110e1565b610abb565b503d610e9f565b635274afe760e01b5f5260045260245ffd5b6001811516610ee557813b15153d151616610a3a565b833d5f823e3d90fd5b638baa579f60e01b5f5260045ffd5b633ab3447f60e11b5f5260045ffd5b631022c88d60e21b5f5260045ffd5b633b68b0fd60e01b5f5260045ffd5b3461014f5761010036600319011261014f57602061087361114c565b9181601f8401121561014f5782359167ffffffffffffffff831161014f576020838186019501011161014f57565b600435906001600160a01b038216820361014f57565b35906001600160a01b038216820361014f57565b805180835260209291819084018484015e5f828201840152601f01601f1916010190565b6004356001600160a01b038116810361014f5790565b6024356001600160a01b038116810361014f5790565b610124356001600160a01b038116810361014f5790565b6060810190811067ffffffffffffffff82111761102157604052565b634e487b7160e01b5f52604160045260245ffd5b6080810190811067ffffffffffffffff82111761102157604052565b60a0810190811067ffffffffffffffff82111761102157604052565b90601f8019910116810190811067ffffffffffffffff82111761102157604052565b67ffffffffffffffff811161102157601f01601f191660200190565b9291926110b78261108f565b916110c5604051938461106d565b82948184528183011161014f578281602093845f960137010152565b9081602091031261014f5751801515810361014f5790565b600160ff1b8114610e7c575f0390565b80516001600160a01b03908116835260208083015182169084015260408083015162ffffff169084015260608083015160020b9084015260809182015116910152565b6004356001600160a01b0381169081810361014f57506024356001600160a01b0381169081810361014f57506044356001600160a01b0381169081810361014f57506040519160208301937fe57551349dc863f3c18fb047f16431db09c925231cacde432f37defef60611a0855260408401526060830152608082015260643560a082015260843560c082015260a43560e082015260c43561010082015260e43561012082015261012081526112046101408261106d565b51902090565b60ff60025460a01c1661121957565b63d93c066560e01b5f5260045ffd5b916040519163a9059cbb60e01b5f5260018060a01b031660045260245260205f60448180865af19060015f5114821615611288575b604052156112685750565b635274afe760e01b5f9081526001600160a01b0391909116600452602490fd5b9060018115166112a057823b15153d1516169061125d565b503d5f823e3d90fd5b307f00000000000000000000000000000000000000000000000000000000000000006001600160a01b03161480611396575b15611304577f000000000000000000000000000000000000000000000000000000000000000090565b60405160208101907f8b73c3c69bb8fe3d512ecc4cf759cc79239f7b179b0ffacaa9a75d522b39400f82527f000000000000000000000000000000000000000000000000000000000000000060408201527f000000000000000000000000000000000000000000000000000000000000000060608201524660808201523060a082015260a0815261120460c08261106d565b507f000000000000000000000000000000000000000000000000000000000000000046146112db565b6002546001600160a01b031633036113d357565b63118cdaa760e01b5f523360045260245ffd5b600f0b6f7fffffffffffffffffffffffffffffff198114610e7c575f0390565b81519190604183036114365761142f9250602082015190606060408401519301515f1a90611877565b9192909190565b50505f9160029190565b60048110156114a05780611452575050565b600181036114695763f645eedf60e01b5f5260045ffd5b60028103611484575063fce698f760e01b5f5260045260245ffd5b60031461148e5750565b6335e2f38360e21b5f5260045260245ffd5b634e487b7160e01b5f52602160045260245ffd5b60ff81146114fa5760ff811690601f82116114eb57604051916114d860408461106d565b6020808452838101919036833783525290565b632cd44ac360e21b5f5260045ffd5b506040515f80548060011c91600182169182156115d0575b6020841083146115bc57838552849290811561159d5750600114611540575b61153d9250038261106d565b90565b505f80805290917f290decd9548b62a8d60345a988386fc84ba6bc95484008f6362f93160ef3e5635b81831061158157505090602061153d92820101611531565b6020919350806001915483858801015201910190918392611569565b6020925061153d94915060ff191682840152151560051b820101611531565b634e487b7160e01b5f52602260045260245ffd5b92607f1692611512565b60ff81146115fe5760ff811690601f82116114eb57604051916114d860408461106d565b506040515f6001548060011c91600182169182156116a0575b6020841083146115bc57838552849290811561159d57506001146116415761153d9250038261106d565b5060015f90815290917fb10e2d527612073b26eecdfd717e6a320cf44b4afac2b0732d9fcbe2b7fa0cf65b81831061168457505090602061153d92820101611531565b602091935080600191548385880101520191019091839261166c565b92607f1692611617565b7f00000000000000000000000000000000000000000000000000000000000000006001600160a01b031691823b1561014f57604051630b0d9c0960e01b81526001600160a01b0390921660048301523060248301526044820152905f908290606490829084905af180156105545761171f5750565b5f6117299161106d565b565b907f00000000000000000000000000000000000000000000000000000000000000006001600160a01b031690813b1561014f57604051632961046560e21b81526001600160a01b03909316600484018190525f93909190848160248183885af180156105545761185e575b5060405163a9059cbb60e01b81526001600160a01b03841660048201526024810191909152906020908290818681604481015b03925af1801561185357916020918493611838575b50600460405180948193630476982d60e21b83525af1801561182d57611802575050565b602090813d8311611826575b611818818361106d565b810103126118235750565b80fd5b503d61180e565b6040513d84823e3d90fd5b61184e90833d8511610eb657610ea9818361106d565b6117de565b6040513d85823e3d90fd5b61186c919294505f9061106d565b5f92906117c9611796565b91907f7fffffffffffffffffffffffffffffff5d576e7357a4501ddfe92f46681b20a084116118ee579160209360809260ff5f9560405194855216868401526040830152606082015282805260015afa15610554575f516001600160a01b038116156118e457905f905f90565b505f906001905f90565b5050505f916003919056fea2646970667358221220a491ef31434eb0c6fdaf9560cd89edb7716c3a009e13944104de6fcb2c90886064736f6c634300081a0033000000000000000000000000e03a1074c86cfedd5c142c4f04f1a1536e203543",
        "nonce": "0x1cb",
        "chainId": "0xaa36a7"
      },
      "additionalContracts": [],
      "isFixedGasLimit": false
    },
    {
      "hash": "0x692ae817c5c55060f4e19a588b513d435d247e9a1675d804c5d1b8c0ef87dfa9",
      "transactionType": "CALL",
      "contractName": null,
      "contractAddress": "0x94a9d9ac8a22534e3faca9f4e7f2e2cf85d5e4c8",
      "function": "approve(address,uint256)",
      "arguments": [
        "0xD1bcE480082E0671C36609ceCDDff93D543DCd84",
        "1000000"
      ],
      "transaction": {
        "from": "0x1c2f3137e71dec33c6111cfeb7f58b8389f9ff21",
        "to": "0x94a9d9ac8a22534e3faca9f4e7f2e2cf85d5e4c8",
        "gas": "0xf959",
        "value": "0x0",
        "input": "0x095ea7b3000000000000000000000000d1bce480082e0671c36609cecddff93d543dcd8400000000000000000000000000000000000000000000000000000000000f4240",
        "nonce": "0x1cc",
        "chainId": "0xaa36a7"
      },
      "additionalContracts": [],
      "isFixedGasLimit": false
    },
    {
      "hash": "0xbb3d33b51eca9ef3d613703dcf12ec0c50ea1c2839965dfebc0dda9072816d1d",
      "transactionType": "CALL",
      "contractName": "IntentRouter",
      "contractAddress": "0xd1bce480082e0671c36609cecddff93d543dcd84",
      "function": "executeIntent((address,address,address,uint256,uint256,uint256,bytes32,uint256),bytes,(address,address,uint24,int24,address),bytes)",
      "arguments": [
        "(0x1C2F3137E71dEC33c6111cFeB7F58B8389F9fF21, 0x94a9D9AC8a22534E3FaCa9F4e7F2E2cf85d5E4C8, 0xFF34B3d4Aee8ddCd6F9AFFFB6Fe49bD371b8a357, 1000000, 500, 1769917956, 0x9fc9212705a775dc1267b361b43ccda833c07986473da79558651f874598b96c, 0)",
        "0x6402839d160b932cf0c2c5ee85c8a962d101168331f766438fc0ce5ee24bd1c61fd33fd1679f5f919beda41c396d7df214fa435ad9f33dafde027b7604ae9edb1c",
        "(0x94a9D9AC8a22534E3FaCa9F4e7F2E2cf85d5E4C8, 0xFF34B3d4Aee8ddCd6F9AFFFB6Fe49bD371b8a357, 2500, 50, 0x15d3b7CbC9463f92a88cE7B1B384277DA741C040)",
        "0x0000000000000000000000000000000000000000000000000000000000000020000000000000000000000000000000000000000000000000000000000000000d746573742d71756f74652d696400000000000000000000000000000000000000"
      ],
      "transaction": {
        "from": "0x1c2f3137e71dec33c6111cfeb7f58b8389f9ff21",
        "to": "0xd1bce480082e0671c36609cecddff93d543dcd84",
        "gas": "0x56900",
        "value": "0x0",
        "input": "0x1c6c0fd40000000000000000000000001c2f3137e71dec33c6111cfeb7f58b8389f9ff2100000000000000000000000094a9d9ac8a22534e3faca9f4e7f2e2cf85d5e4c8000000000000000000000000ff34b3d4aee8ddcd6f9afffb6fe49bd371b8a35700000000000000000000000000000000000000000000000000000000000f424000000000000000000000000000000000000000000000000000000000000001f400000000000000000000000000000000000000000000000000000000697ece049fc9212705a775dc1267b361b43ccda833c07986473da79558651f874598b96c000000000000000000000000000000000000000000000000000000000000000000000000000000000000000000000000000000000000000000000000000001e000000000000000000000000094a9d9ac8a22534e3faca9f4e7f2e2cf85d5e4c8000000000000000000000000ff34b3d4aee8ddcd6f9afffb6fe49bd371b8a35700000000000000000000000000000000000000000000000000000000000009c4000000000000000000000000000000000000000000000000000000000000003200000000000000000000000015d3b7cbc9463f92a88ce7b1b384277da741c040000000000000000000000000000000000000000000000000000000000000026000000000000000000000000000000000000000000000000000000000000000416402839d160b932cf0c2c5ee85c8a962d101168331f766438fc0ce5ee24bd1c61fd33fd1679f5f919beda41c396d7df214fa435ad9f33dafde027b7604ae9edb1c0000000000000000000000000000000000000000000000000000000000000000000000000000000000000000000000000000000000000000000000000000600000000000000000000000000000000000000000000000000000000000000020000000000000000000000000000000000000000000000000000000000000000d746573742d71756f74652d696400000000000000000000000000000000000000",
        "nonce": "0x1cd",
        "chainId": "0xaa36a7"
      },
      "additionalContracts": [],
      "isFixedGasLimit": false
    }
  ],
  "receipts": [
    {
      "status": "0x1",
      "cumulativeGasUsed": "0x7fbb09",
      "logs": [
        {
          "address": "0xd1bce480082e0671c36609cecddff93d543dcd84",
          "topics": [
            "0x8be0079c531659141344cd1fd0a4f28419497f9722a3daafe3b4186f6b6457e0",
            "0x0000000000000000000000000000000000000000000000000000000000000000",
            "0x0000000000000000000000001c2f3137e71dec33c6111cfeb7f58b8389f9ff21"
          ],
          "data": "0x",
          "blockHash": "0x15a4d2173ff07733a44c09530de47cbed0a5aaf07d5e10b36ca6af745c28d68b",
          "blockNumber": "0x9b2059",
          "blockTimestamp": "0x697ec00c",
          "transactionHash": "0x692ae817c5c55060f4e19a588b513d435d247e9a1675d804c5d1b8c0ef87dfa9",
          "transactionIndex": "0x27",
          "logIndex": "0x3f",
          "removed": false
        }
      ],
      "logsBloom": "0x00000000000000000000000000000000000000000000000200800000000000000000000000000000000000000000000000000000000000000000000000000000000000000000000000000000004000400001000000000000000000000000000000000000020000000000002000000800000000000000000000000000000000400000000000000000000000000000000000000000000000004000000000000000000000000000000000000000000000000000000000000000000000000000000000000000000000000000000000000000000000000000000000000000000020000000000000000000000000000000000000000000000100000000000000000000",
      "type": "0x2",
      "transactionHash": "0x692ae817c5c55060f4e19a588b513d435d247e9a1675d804c5d1b8c0ef87dfa9",
      "transactionIndex": "0x27",
      "blockHash": "0x15a4d2173ff07733a44c09530de47cbed0a5aaf07d5e10b36ca6af745c28d68b",
      "blockNumber": "0x9b2059",
      "gasUsed": "0x16b646",
      "effectiveGasPrice": "0x411b0413",
      "from": "0x1c2f3137e71dec33c6111cfeb7f58b8389f9ff21",
      "to": null,
      "contractAddress": "0xd1bce480082e0671c36609cecddff93d543dcd84"
    },
    {
      "status": "0x1",
      "cumulativeGasUsed": "0x806f90",
      "logs": [
        {
          "address": "0x94a9d9ac8a22534e3faca9f4e7f2e2cf85d5e4c8",
          "topics": [
            "0x8c5be1e5ebec7d5bd14f71427d1e84f3dd0314c0f7b2291e5b200ac8c7c3b925",
            "0x0000000000000000000000001c2f3137e71dec33c6111cfeb7f58b8389f9ff21",
            "0x000000000000000000000000d1bce480082e0671c36609cecddff93d543dcd84"
          ],
          "data": "0x00000000000000000000000000000000000000000000000000000000000f4240",
          "blockHash": "0x15a4d2173ff07733a44c09530de47cbed0a5aaf07d5e10b36ca6af745c28d68b",
          "blockNumber": "0x9b2059",
          "blockTimestamp": "0x697ec00c",
          "transactionHash": "0xfebb2aeb84ea28a08507bb8f6947f420af03b6c9abdcbfeb430fbed41de0ee85",
          "transactionIndex": "0x28",
          "logIndex": "0x40",
          "removed": false
        }
      ],
      "logsBloom": "0x00000000000000000000000000000000000000000000000200000000000000000000000000000000000000000000000000000000000000000000000000200000000000000000000000000000000000400000000000200000000008000000000000000000000000000000000000000000000000000000000000000000000000000000000000010000000000000000000000000000000000004000000000000000020000000100000000004000000000000000000000000000000000000000000000000000000000000400000000000000000000000000000000000000000000000010000000000000000000000000000000000000000000000000000000000000",
      "type": "0x2",
      "transactionHash": "0xfebb2aeb84ea28a08507bb8f6947f420af03b6c9abdcbfeb430fbed41de0ee85",
      "transactionIndex": "0x28",
      "blockHash": "0x15a4d2173ff07733a44c09530de47cbed0a5aaf07d5e10b36ca6af745c28d68b",
      "blockNumber": "0x9b2059",
      "gasUsed": "0xb487",
      "effectiveGasPrice": "0x411b0413",
      "from": "0x1c2f3137e71dec33c6111cfeb7f58b8389f9ff21",
      "to": "0x94a9d9ac8a22534e3faca9f4e7f2e2cf85d5e4c8",
      "contractAddress": null
    },
    {
      "status": "0x1",
      "cumulativeGasUsed": "0x842293",
      "logs": [
        {
          "address": "0x94a9d9ac8a22534e3faca9f4e7f2e2cf85d5e4c8",
          "topics": [
            "0xddf252ad1be2c89b69c2b068fc378daa952ba7f163c4a11628f55a4df523b3ef",
            "0x0000000000000000000000001c2f3137e71dec33c6111cfeb7f58b8389f9ff21",
            "0x000000000000000000000000d1bce480082e0671c36609cecddff93d543dcd84"
          ],
          "data": "0x00000000000000000000000000000000000000000000000000000000000f4240",
          "blockHash": "0x15a4d2173ff07733a44c09530de47cbed0a5aaf07d5e10b36ca6af745c28d68b",
          "blockNumber": "0x9b2059",
          "blockTimestamp": "0x697ec00c",
          "transactionHash": "0xbb3d33b51eca9ef3d613703dcf12ec0c50ea1c2839965dfebc0dda9072816d1d",
          "transactionIndex": "0x29",
          "logIndex": "0x41",
          "removed": false
        },
        {
          "address": "0x94a9d9ac8a22534e3faca9f4e7f2e2cf85d5e4c8",
          "topics": [
            "0x8c5be1e5ebec7d5bd14f71427d1e84f3dd0314c0f7b2291e5b200ac8c7c3b925",
            "0x0000000000000000000000001c2f3137e71dec33c6111cfeb7f58b8389f9ff21",
            "0x000000000000000000000000d1bce480082e0671c36609cecddff93d543dcd84"
          ],
          "data": "0x0000000000000000000000000000000000000000000000000000000000000000",
          "blockHash": "0x15a4d2173ff07733a44c09530de47cbed0a5aaf07d5e10b36ca6af745c28d68b",
          "blockNumber": "0x9b2059",
          "blockTimestamp": "0x697ec00c",
          "transactionHash": "0xbb3d33b51eca9ef3d613703dcf12ec0c50ea1c2839965dfebc0dda9072816d1d",
          "transactionIndex": "0x29",
          "logIndex": "0x42",
          "removed": false
        },
        {
          "address": "0x94a9d9ac8a22534e3faca9f4e7f2e2cf85d5e4c8",
          "topics": [
            "0x8c5be1e5ebec7d5bd14f71427d1e84f3dd0314c0f7b2291e5b200ac8c7c3b925",
            "0x000000000000000000000000d1bce480082e0671c36609cecddff93d543dcd84",
            "0x000000000000000000000000e03a1074c86cfedd5c142c4f04f1a1536e203543"
          ],
          "data": "0x00000000000000000000000000000000000000000000000000000000000f4240",
          "blockHash": "0x15a4d2173ff07733a44c09530de47cbed0a5aaf07d5e10b36ca6af745c28d68b",
          "blockNumber": "0x9b2059",
          "blockTimestamp": "0x697ec00c",
          "transactionHash": "0xbb3d33b51eca9ef3d613703dcf12ec0c50ea1c2839965dfebc0dda9072816d1d",
          "transactionIndex": "0x29",
          "logIndex": "0x43",
          "removed": false
        },
        {
          "address": "0xe03a1074c86cfedd5c142c4f04f1a1536e203543",
          "topics": [
            "0x40e9cecb9f5f1f1c5b9c97dec2917b7ee92e57ba5563708daca94dd84ad7112f",
            "0xeb80fabedf69cc83b39f286aa3a3b61ddf7b50381724e93fb26dbc28513a4f10",
            "0x000000000000000000000000d1bce480082e0671c36609cecddff93d543dcd84"
          ],
          "data": "0xfffffffffffffffffffffffffffffffffffffffffffffffffffffffffff0bdc000000000000000000000000000000000000000000000000000000000000f38180000000000000000000000000000000000000000fff976a3be3f61962c94729200000000000000000000000000000000000000000000000000000002540be400fffffffffffffffffffffffffffffffffffffffffffffffffffffffffffffffe00000000000000000000000000000000000000000000000000000000000009c4",
          "blockHash": "0x15a4d2173ff07733a44c09530de47cbed0a5aaf07d5e10b36ca6af745c28d68b",
          "blockNumber": "0x9b2059",
          "blockTimestamp": "0x697ec00c",
          "transactionHash": "0xbb3d33b51eca9ef3d613703dcf12ec0c50ea1c2839965dfebc0dda9072816d1d",
          "transactionIndex": "0x29",
          "logIndex": "0x44",
          "removed": false
        },
        {
          "address": "0x15d3b7cbc9463f92a88ce7b1b384277da741c040",
          "topics": [
            "0x56a605c50ce408b1846a6a1117b72d4b801f498a860fe9c66adfd704cc8f731a",
            "0x9fc9212705a775dc1267b361b43ccda833c07986473da79558651f874598b96c",
            "0x4541a001988a0044d06f9dfc19a275e1f8b953ce42f3b199b832a6c187674234",
            "0x000000000000000000000000d1bce480082e0671c36609cecddff93d543dcd84"
          ],
          "data": "0xfffffffffffffffffffffffffffffffffffffffffffffffffffffffffff0bdc000000000000000000000000000000000000000000000000000000000000f3818000000000000000000000000000000000000000000000000000000000000001a000000000000000000000000000000000000000000000000000000000000000100000000000000000000000000000000000000000000000000000000697ec00c",
          "blockHash": "0x15a4d2173ff07733a44c09530de47cbed0a5aaf07d5e10b36ca6af745c28d68b",
          "blockNumber": "0x9b2059",
          "blockTimestamp": "0x697ec00c",
          "transactionHash": "0xbb3d33b51eca9ef3d613703dcf12ec0c50ea1c2839965dfebc0dda9072816d1d",
          "transactionIndex": "0x29",
          "logIndex": "0x45",
          "removed": false
        },
        {
          "address": "0x94a9d9ac8a22534e3faca9f4e7f2e2cf85d5e4c8",
          "topics": [
            "0xddf252ad1be2c89b69c2b068fc378daa952ba7f163c4a11628f55a4df523b3ef",
            "0x000000000000000000000000d1bce480082e0671c36609cecddff93d543dcd84",
            "0x000000000000000000000000e03a1074c86cfedd5c142c4f04f1a1536e203543"
          ],
          "data": "0x00000000000000000000000000000000000000000000000000000000000f4240",
          "blockHash": "0x15a4d2173ff07733a44c09530de47cbed0a5aaf07d5e10b36ca6af745c28d68b",
          "blockNumber": "0x9b2059",
          "blockTimestamp": "0x697ec00c",
          "transactionHash": "0xbb3d33b51eca9ef3d613703dcf12ec0c50ea1c2839965dfebc0dda9072816d1d",
          "transactionIndex": "0x29",
          "logIndex": "0x46",
          "removed": false
        },
        {
          "address": "0xff34b3d4aee8ddcd6f9afffb6fe49bd371b8a357",
          "topics": [
            "0xddf252ad1be2c89b69c2b068fc378daa952ba7f163c4a11628f55a4df523b3ef",
            "0x000000000000000000000000e03a1074c86cfedd5c142c4f04f1a1536e203543",
            "0x000000000000000000000000d1bce480082e0671c36609cecddff93d543dcd84"
          ],
          "data": "0x00000000000000000000000000000000000000000000000000000000000f3818",
          "blockHash": "0x15a4d2173ff07733a44c09530de47cbed0a5aaf07d5e10b36ca6af745c28d68b",
          "blockNumber": "0x9b2059",
          "blockTimestamp": "0x697ec00c",
          "transactionHash": "0xbb3d33b51eca9ef3d613703dcf12ec0c50ea1c2839965dfebc0dda9072816d1d",
          "transactionIndex": "0x29",
          "logIndex": "0x47",
          "removed": false
        },
        {
          "address": "0xd1bce480082e0671c36609cecddff93d543dcd84",
          "topics": [
            "0x3c5bf2660d1472f467a143f66bc9e416b4e864287f584ea0d47e083efa13ae49",
            "0x186eac555decc8dcf2797dfeee3f9771c77af271c85557bbb9acb57cee519d84",
            "0x0000000000000000000000001c2f3137e71dec33c6111cfeb7f58b8389f9ff21",
            "0x9fc9212705a775dc1267b361b43ccda833c07986473da79558651f874598b96c"
          ],
          "data": "0x00000000000000000000000000000000000000000000000000000000000f4240fffffffffffffffffffffffffffffffffffffffffffffffffffffffffff0c7e8",
          "blockHash": "0x15a4d2173ff07733a44c09530de47cbed0a5aaf07d5e10b36ca6af745c28d68b",
          "blockNumber": "0x9b2059",
          "blockTimestamp": "0x697ec00c",
          "transactionHash": "0xbb3d33b51eca9ef3d613703dcf12ec0c50ea1c2839965dfebc0dda9072816d1d",
          "transactionIndex": "0x29",
          "logIndex": "0x48",
          "removed": false
        }
      ],
      "logsBloom": "0x00000000000000000008100200000000000000000000000300000000000008000000000000000000000000800000000100000100040204020000000000200000000000000000000000000008004008400000000000200020000208000000000000000040000000000001002080000000000000000000100100000010000000000000000000010000000010000000000000000000008000604000000000000000020000000100000000004000100000000000000800000000000000000000000000000002000000000400000000000000001000000000000000001000000000001010000800000000004000000000000000000000000100000000000000014000",
      "type": "0x2",
      "transactionHash": "0xbb3d33b51eca9ef3d613703dcf12ec0c50ea1c2839965dfebc0dda9072816d1d",
      "transactionIndex": "0x29",
      "blockHash": "0x15a4d2173ff07733a44c09530de47cbed0a5aaf07d5e10b36ca6af745c28d68b",
      "blockNumber": "0x9b2059",
      "gasUsed": "0x3b303",
      "effectiveGasPrice": "0x411b0413",
      "from": "0x1c2f3137e71dec33c6111cfeb7f58b8389f9ff21",
      "to": "0xd1bce480082e0671c36609cecddff93d543dcd84",
      "contractAddress": null
    }
  ],
  "libraries": [],
  "pending": [],
  "returns": {},
  "timestamp": 1769914381389,
  "chain": 11155111,
  "commit": "1b7a2a8"
}