{
  "transactions": [
    {
      "hash": "0x8f33d578e7754967961ec48b7eef18c2140edb2ea45962e6b8ef5a0df527b365",
      "transactionType": "CREATE",
      "contractName": "IntentRouter",
      "contractAddress": "0xfd699481f0aa60e0014eed79d16cbe4b954ffaef",
      "function": null,
      "arguments": [
        "0xE03A1074c86CFeDd5C142C4F04F1a1536e203543"
      ],
      "transaction": {
        "from": "0x1c2f3137e71dec33c6111cfeb7f58b8389f9ff21",
        "gas": "0x1d68f5",
        "value": "0x0",
        "input": "0x61018080604052346101f857602081611e16803803809161002082856101fc565b8339810103126101f857516001600160a01b038116908190036101f85760405161004b6040826101fc565b6015815260208101907f4f696b6f6e6f6d6f73496e74656e74526f7574657200000000000000000000008252604051916100866040846101fc565b600183526020830191603160f81b835261009f81610233565b610120526100ac846103c9565b61014052519020918260e05251902080610100524660a0526040519060208201927f8b73c3c69bb8fe3d512ecc4cf759cc79239f7b179b0ffacaa9a75d522b39400f8452604083015260608201524660808201523060a082015260a0815261011560c0826101fc565b5190206080523060c05233156101e55760028054336001600160a01b0319821681179092556040519291906001600160a01b03167f8be0079c531659141344cd1fd0a4f28419497f9722a3daafe3b4186f6b6457e05f80a36101605261191490816105028239608051816112c7015260a0518161137e015260c05181611291015260e051816113160152610100518161133c015261012051816105ae015261014051816105d70152610160518181816102170152818161079701528181610a6c0152818161169101526117130152f35b631e4fbdf760e01b5f525f60045260245ffd5b5f80fd5b601f909101601f19168101906001600160401b0382119082101761021f57604052565b634e487b7160e01b5f52604160045260245ffd5b908151602081105f146102ad575090601f81511161026d57602081519101516020821061025e571790565b5f198260200360031b1b161790565b604460209160405192839163305a27a960e01b83528160048401528051918291826024860152018484015e5f828201840152601f01601f19168101030190fd5b6001600160401b03811161021f575f54600181811c911680156103bf575b60208210146103ab57601f8111610379575b50602092601f821160011461031a57928192935f9261030f575b50508160011b915f199060031b1c1916175f5560ff90565b015190505f806102f7565b601f198216935f8052805f20915f5b8681106103615750836001959610610349575b505050811b015f5560ff90565b01515f1960f88460031b161c191690555f808061033c565b91926020600181928685015181550194019201610329565b5f8052601f60205f20910160051c810190601f830160051c015b8181106103a057506102dd565b5f8155600101610393565b634e487b7160e01b5f52602260045260245ffd5b90607f16906102cb565b908151602081105f146103f4575090601f81511161026d57602081519101516020821061025e571790565b6001600160401b03811161021f57600154600181811c911680156104f7575b60208210146103ab57601f81116104c4575b50602092601f821160011461046357928192935f92610458575b50508160011b915f199060031b1c19161760015560ff90565b015190505f8061043f565b601f1982169360015f52805f20915f5b8681106104ac5750836001959610610494575b505050811b0160015560ff90565b01515f1960f88460031b161c191690555f8080610486565b91926020600181928685015181550194019201610473565b60015f52601f60205f20910160051c810190601f830160051c015b8181106104ec5750610425565b5f81556001016104df565b90607f169061041356fe60806040526004361015610011575f80fd5b5f3560e01c8063100f752e14610f1f5780631c6c0fd41461087b5780632d0335ab146106ef5780633644e515146108595780633f4ba83a146107eb5780635c975abb146107c657806362308e8514610782578063715018a6146107275780637ecebe00146106ef5780638456cb591461068e57806384b0196e146105965780638da5cb5b1461056e57806391dd7346146101e4578063b30d45f4146101b5578063cea9d26f146101535763f2fde38b146100c9575f80fd5b3461014f57602036600319011261014f576100e2610f69565b6100ea6113a4565b6001600160a01b0316801561013c57600280546001600160a01b0319811683179091556001600160a01b03167f8be0079c531659141344cd1fd0a4f28419497f9722a3daafe3b4186f6b6457e05f80a3005b631e4fbdf760e01b5f525f60045260245ffd5b5f80fd5b3461014f57606036600319011261014f5761016c610f69565b602435906001600160a01b038216820361014f576101886113a4565b6001600160a01b031680156101a6576101a4916044359161120d565b005b63c1ab6dc160e01b5f5260045ffd5b3461014f57602036600319011261014f576004355f526004602052602060ff60405f2054166040519015158152f35b3461014f57602036600319011261014f5760043567ffffffffffffffff811161014f57610215903690600401610f3b565b7f00000000000000000000000000000000000000000000000000000000000000006001600160a01b0316903382900361055f5782019160208184031261014f5780359067ffffffffffffffff821161014f570180830391610140831261014f57604051906102828261102a565b61028b83610f7f565b825260a0601f1985011261014f57604051936102a685611046565b6102b260208501610f7f565b85526102c060408501610f7f565b6020860152606084013562ffffff8116810361014f57604086015260808401358060020b810361014f57606086015260a0840135906001600160a01b038216820361014f5760609160808701526020840195865260bf19011261014f576040519261032a84610ffa565b60c0810135801515810361014f57845260e081013560208501526101008101356001600160a01b038116810361014f576040850152604083019384526101208101359067ffffffffffffffff821161014f570185601f8201121561014f575f6020946060946103a46103f69985896103cf973591016110a0565b958691015261040a8751915195604051998a9788968795633cf3645360e21b875260048701906110ee565b8051151560a4860152602081015160c4860152604001516001600160a01b031660e4850152565b610120610104840152610124830190610f93565b03925af1908115610554575f9161051e575b6104b59250518160801d82600f0b9080600f0b5f81125f146104ed575061045f906001600160801b0361045860018060a01b03865116926113cb565b1690611710565b5f8112156104b9576001600160801b0361045861048993602060018060a01b0391015116926113cb565b604051906020820152602081526104a1604082611062565b604051918291602083526020830190610f93565b0390f35b5f126104c6575b50610489565b602001516104e7906001600160801b038316906001600160a01b031661168f565b826104c0565b5f126104fa575b5061045f565b8251610518916001600160801b0316906001600160a01b031661168f565b846104f4565b90506020823d60201161054c575b8161053960209383611062565b8101031261014f576104b591519061041c565b3d915061052c565b6040513d5f823e3d90fd5b63570c108560e11b5f5260045ffd5b3461014f575f36600319011261014f576002546040516001600160a01b039091168152602090f35b3461014f575f36600319011261014f576106326105d27f0000000000000000000000000000000000000000000000000000000000000000611499565b6105fb7f00000000000000000000000000000000000000000000000000000000000000006115bf565b60206106406040519261060e8385611062565b5f84525f368137604051958695600f60f81b875260e08588015260e0870190610f93565b908582036040870152610f93565b4660608501523060808501525f60a085015283810360c08501528180845192838152019301915f5b82811061067757505050500390f35b835185528695509381019392810192600101610668565b3461014f575f36600319011261014f576106a66113a4565b6106ae6111ef565b6002805460ff60a01b1916600160a01b1790556040513381527f62e78cea01bee320cd4e420270b5ea74000d11b0c9f74754ebdbfc544b05a25890602090a1005b3461014f57602036600319011261014f576001600160a01b03610710610f69565b165f526003602052602060405f2054604051908152f35b3461014f575f36600319011261014f5761073f6113a4565b600280546001600160a01b031981169091555f906001600160a01b03167f8be0079c531659141344cd1fd0a4f28419497f9722a3daafe3b4186f6b6457e08280a3005b3461014f575f36600319011261014f576040517f00000000000000000000000000000000000000000000000000000000000000006001600160a01b03168152602090f35b3461014f575f36600319011261014f57602060ff60025460a01c166040519015158152f35b3461014f575f36600319011261014f576108036113a4565b60025460ff8160a01c161561084a5760ff60a01b19166002556040513381527f5db9ee0a495bf2e6ff9c91a7834c1ba4fdd244a5e8aa4e537bd38aeae4b073aa90602090a1005b638dfc202b60e01b5f5260045ffd5b3461014f575f36600319011261014f57602061087361128e565b604051908152f35b3461014f5736600319016101e0811261014f576101001361014f576101043567ffffffffffffffff811161014f576108b7903690600401610f3b565b60a03661012319011261014f576101c43567ffffffffffffffff811161014f576108e5903690600401610f3b565b9290916108f06111ef565b6108f8611131565b91825f52600460205260ff60405f205416610f105760a4354211610f01576001600160a01b03610926610fb7565b165f52600360205260405f205460e43503610ef25761097f9161097061097692604261095061128e565b6040519061190160f01b82526002820152876022820152209236916110a0565b906113eb565b90929192611425565b6001600160a01b0361098f610fb7565b166001600160a01b0390911603610ee3575f818152600460205260409020805460ff191660011790556001600160a01b036109c8610fb7565b165f52600360205260405f2080545f198114610e625760010190556001600160a01b036109f3610fcd565b16916109fd610fb7565b9060643593604051926323b872dd60e01b5f5260018060a01b0316600452306024528460445260205f60648180855af160015f5114811615610ec4575b836040525f60605215610eb257506001600160a01b03610a58610fcd565b63095ea7b360e01b84526001600160a01b037f00000000000000000000000000000000000000000000000000000000000000001660048501819052602485018790529691602091859160449183915f91165af192831561055457610ac393610e85575b5036916110a0565b6020815191012091608435918261271003926127108411610e6257838302938385041483151715610e625760c435936127108211610e765761271090604051968660208901526040880152046060860152608085015260808452610b2860a085611062565b6001600160a01b03610b38610fe3565b166001600160a01b03610b49610fcd565b161493600160ff1b8314610e62578415610e47576401000276a4955b60405196610b7288610ffa565b8688525f85900360208901526001600160a01b03166040880152610b94610fb7565b9660405197610ba28961102a565b6001600160a01b0316885260405192610bba84611046565b610124356001600160a01b038116810361014f578452610144356001600160a01b0381169490939085850361014f578460208201526101643562ffffff8116810361014f576040820152610184358060020b810361014f5760608201526101a4356001600160a01b038116810361014f575f9b610cc0610cf295610cab8f98610cce956080880152602085019687526040850190815260608501928352610c8060405197889660208089015260018060a01b0390511660408801525160608701906110ee565b51805115156101008601526020810151610120860152604001516001600160a01b0316610140850152565b51610140610160840152610180830190610f93565b03601f198101835282611062565b6040519a8b809481936348c8949160e01b8352602060048401526024830190610f93565b03925af1968715610554575f97610dcb575b50602087519781808201998a920101031261014f5760209651865f14610dbf57600f0b955b15610da657505b845f8113610d84575b507f3c5bf2660d1472f467a143f66bc9e416b4e864287f584ea0d47e083efa13ae49905060406001600160a01b03610d6f610fb7565b169381519081528688820152a4604051908152f35b610d9f91610d90610fb7565b906001600160a01b031661120d565b8584610d39565b506001600160a01b039050610db9610fe3565b16610d30565b60801d600f0b95610d29565b9096503d805f833e610ddd8183611062565b81019060208183031261014f5780519067ffffffffffffffff821161014f570181601f8201121561014f57805190610e1482611084565b92610e226040519485611062565b8284526020838301011161014f57815f9260208093018386015e830101529587610d04565b73fffd8963efd1fc6a506488495d951d5263988d2595610b65565b634e487b7160e01b5f52601160045260245ffd5b637444d6d560e01b5f5260045ffd5b610ea69060203d602011610eab575b610e9e8183611062565b8101906110d6565b610abb565b503d610e94565b635274afe760e01b5f5260045260245ffd5b6001811516610eda57813b15153d151616610a3a565b833d5f823e3d90fd5b638baa579f60e01b5f5260045ffd5b633ab3447f60e11b5f5260045ffd5b631022c88d60e21b5f5260045ffd5b633b68b0fd60e01b5f5260045ffd5b3461014f5761010036600319011261014f576020610873611131565b9181601f8401121561014f5782359167ffffffffffffffff831161014f576020838186019501011161014f57565b600435906001600160a01b038216820361014f57565b35906001600160a01b038216820361014f57565b805180835260209291819084018484015e5f828201840152601f01601f1916010190565b6004356001600160a01b038116810361014f5790565b6024356001600160a01b038116810361014f5790565b610124356001600160a01b038116810361014f5790565b6060810190811067ffffffffffffffff82111761101657604052565b634e487b7160e01b5f52604160045260245ffd5b6080810190811067ffffffffffffffff82111761101657604052565b60a0810190811067ffffffffffffffff82111761101657604052565b90601f8019910116810190811067ffffffffffffffff82111761101657604052565b67ffffffffffffffff811161101657601f01601f191660200190565b9291926110ac82611084565b916110ba6040519384611062565b82948184528183011161014f578281602093845f960137010152565b9081602091031261014f5751801515810361014f5790565b80516001600160a01b03908116835260208083015182169084015260408083015162ffffff169084015260608083015160020b9084015260809182015116910152565b6004356001600160a01b0381169081810361014f57506024356001600160a01b0381169081810361014f57506044356001600160a01b0381169081810361014f57506040519160208301937fe57551349dc863f3c18fb047f16431db09c925231cacde432f37defef60611a0855260408401526060830152608082015260643560a082015260843560c082015260a43560e082015260c43561010082015260e43561012082015261012081526111e961014082611062565b51902090565b60ff60025460a01c166111fe57565b63d93c066560e01b5f5260045ffd5b916040519163a9059cbb60e01b5f5260018060a01b031660045260245260205f60448180865af19060015f511482161561126d575b6040521561124d5750565b635274afe760e01b5f9081526001600160a01b0391909116600452602490fd5b90600181151661128557823b15153d15161690611242565b503d5f823e3d90fd5b307f00000000000000000000000000000000000000000000000000000000000000006001600160a01b0316148061137b575b156112e9577f000000000000000000000000000000000000000000000000000000000000000090565b60405160208101907f8b73c3c69bb8fe3d512ecc4cf759cc79239f7b179b0ffacaa9a75d522b39400f82527f000000000000000000000000000000000000000000000000000000000000000060408201527f000000000000000000000000000000000000000000000000000000000000000060608201524660808201523060a082015260a081526111e960c082611062565b507f000000000000000000000000000000000000000000000000000000000000000046146112c0565b6002546001600160a01b031633036113b857565b63118cdaa760e01b5f523360045260245ffd5b600f0b6f7fffffffffffffffffffffffffffffff198114610e62575f0390565b815191906041830361141b576114149250602082015190606060408401519301515f1a9061185c565b9192909190565b50505f9160029190565b60048110156114855780611437575050565b6001810361144e5763f645eedf60e01b5f5260045ffd5b60028103611469575063fce698f760e01b5f5260045260245ffd5b6003146114735750565b6335e2f38360e21b5f5260045260245ffd5b634e487b7160e01b5f52602160045260245ffd5b60ff81146114df5760ff811690601f82116114d057604051916114bd604084611062565b6020808452838101919036833783525290565b632cd44ac360e21b5f5260045ffd5b506040515f80548060011c91600182169182156115b5575b6020841083146115a15783855284929081156115825750600114611525575b61152292500382611062565b90565b505f80805290917f290decd9548b62a8d60345a988386fc84ba6bc95484008f6362f93160ef3e5635b81831061156657505090602061152292820101611516565b602091935080600191548385880101520191019091839261154e565b6020925061152294915060ff191682840152151560051b820101611516565b634e487b7160e01b5f52602260045260245ffd5b92607f16926114f7565b60ff81146115e35760ff811690601f82116114d057604051916114bd604084611062565b506040515f6001548060011c9160018216918215611685575b6020841083146115a157838552849290811561158257506001146116265761152292500382611062565b5060015f90815290917fb10e2d527612073b26eecdfd717e6a320cf44b4afac2b0732d9fcbe2b7fa0cf65b81831061166957505090602061152292820101611516565b6020919350806001915483858801015201910190918392611651565b92607f16926115fc565b7f00000000000000000000000000000000000000000000000000000000000000006001600160a01b031691823b1561014f57604051630b0d9c0960e01b81526001600160a01b0390921660048301523060248301526044820152905f908290606490829084905af18015610554576117045750565b5f61170e91611062565b565b907f00000000000000000000000000000000000000000000000000000000000000006001600160a01b031690813b1561014f57604051632961046560e21b81526001600160a01b03909316600484018190525f93909190848160248183885af1801561055457611843575b5060405163a9059cbb60e01b81526001600160a01b03841660048201526024810191909152906020908290818681604481015b03925af180156118385791602091849361181d575b50600460405180948193630476982d60e21b83525af18015611812576117e7575050565b602090813d831161180b575b6117fd8183611062565b810103126118085750565b80fd5b503d6117f3565b6040513d84823e3d90fd5b61183390833d8511610eab57610e9e8183611062565b6117c3565b6040513d85823e3d90fd5b611851919294505f90611062565b5f92906117ae61177b565b91907f7fffffffffffffffffffffffffffffff5d576e7357a4501ddfe92f46681b20a084116118d3579160209360809260ff5f9560405194855216868401526040830152606082015282805260015afa15610554575f516001600160a01b038116156118c957905f905f90565b505f906001905f90565b5050505f916003919056fea26469706673582212200d33cc0c351104aa07e52318fe6ad2b44442a9a867a7fafa74ba1a7391b0cae164736f6c634300081a0033000000000000000000000000e03a1074c86cfedd5c142c4f04f1a1536e203543",
        "nonce": "0x1da",
        "chainId": "0xaa36a7"
      },
      "additionalContracts": [],
      "isFixedGasLimit": false
    },
    {
      "hash": "0x101961a836079a13d8e63c058e88fd33b1b7f41d0f7c749ae416ee43c6d361b6",
      "transactionType": "CALL",
      "contractName": null,
      "contractAddress": "0x94a9d9ac8a22534e3faca9f4e7f2e2cf85d5e4c8",
      "function": "approve(address,uint256)",
      "arguments": [
        "0xFD699481f0aA60e0014EEd79d16cbe4b954FfaEf",
        "1000000"
      ],
      "transaction": {
        "from": "0x1c2f3137e71dec33c6111cfeb7f58b8389f9ff21",
        "to": "0x94a9d9ac8a22534e3faca9f4e7f2e2cf85d5e4c8",
        "gas": "0xf959",
        "value": "0x0",
        "input": "0x095ea7b3000000000000000000000000fd699481f0aa60e0014eed79d16cbe4b954ffaef00000000000000000000000000000000000000000000000000000000000f4240",
        "nonce": "0x1db",
        "chainId": "0xaa36a7"
      },
      "additionalContracts": [],
      "isFixedGasLimit": false
    },
    {
      "hash": "0x4555686d8aab0bd9edc2efe02208365295a7c30696649aa1eb82ed228681236c",
      "transactionType": "CALL",
      "contractName": "IntentRouter",
      "contractAddress": "0xfd699481f0aa60e0014eed79d16cbe4b954ffaef",
      "function": "executeIntent((address,address,address,uint256,uint256,uint256,bytes32,uint256),bytes,(address,address,uint24,int24,address),bytes)",
      "arguments": [
        "(0x1C2F3137E71dEC33c6111cFeB7F58B8389F9fF21, 0x94a9D9AC8a22534E3FaCa9F4e7F2E2cf85d5E4C8, 0xFF34B3d4Aee8ddCd6F9AFFFB6Fe49bD371b8a357, 1000000, 500, 1769918364, 0x9fc9212705a775dc1267b361b43ccda833c07986473da79558651f874598b96c, 0)",
        "0xd5d3df8b17ae0d12cf77285e33629206d89fa9ce8aa575231d96246520695dbd27a9b718216c47725e3bbf967b19f84adaffe0293bd7b05da76cee1ca1eee2b91c",
        "(0x94a9D9AC8a22534E3FaCa9F4e7F2E2cf85d5E4C8, 0xFF34B3d4Aee8ddCd6F9AFFFB6Fe49bD371b8a357, 3000, 60, 0x15d3b7CbC9463f92a88cE7B1B384277DA741C040)",
        "0x0000000000000000000000000000000000000000000000000000000000000020000000000000000000000000000000000000000000000000000000000000000d746573742d71756f74652d696400000000000000000000000000000000000000"
      ],
      "transaction": {
        "from": "0x1c2f3137e71dec33c6111cfeb7f58b8389f9ff21",
        "to": "0xfd699481f0aa60e0014eed79d16cbe4b954ffaef",
        "gas": "0x4c4aa",
        "value": "0x0",
        "input": "0x1c6c0fd40000000000000000000000001c2f3137e71dec33c6111cfeb7f58b8389f9ff2100000000000000000000000094a9d9ac8a22534e3faca9f4e7f2e2cf85d5e4c8000000000000000000000000ff34b3d4aee8ddcd6f9afffb6fe49bd371b8a35700000000000000000000000000000000000000000000000000000000000f424000000000000000000000000000000000000000000000000000000000000001f400000000000000000000000000000000000000000000000000000000697ecf9c9fc9212705a775dc1267b361b43ccda833c07986473da79558651f874598b96c000000000000000000000000000000000000000000000000000000000000000000000000000000000000000000000000000000000000000000000000000001e000000000000000000000000094a9d9ac8a22534e3faca9f4e7f2e2cf85d5e4c8000000000000000000000000ff34b3d4aee8ddcd6f9afffb6fe49bd371b8a3570000000000000000000000000000000000000000000000000000000000000bb8000000000000000000000000000000000000000000000000000000000000003c00000000000000000000000015d3b7cbc9463f92a88ce7b1b384277da741c04000000000000000000000000000000000000000000000000000000000000002600000000000000000000000000000000000000000000000000000000000000041d5d3df8b17ae0d12cf77285e33629206d89fa9ce8aa575231d96246520695dbd27a9b718216c47725e3bbf967b19f84adaffe0293bd7b05da76cee1ca1eee2b91c0000000000000000000000000000000000000000000000000000000000000000000000000000000000000000000000000000000000000000000000000000600000000000000000000000000000000000000000000000000000000000000020000000000000000000000000000000000000000000000000000000000000000d746573742d71756f74652d696400000000000000000000000000000000000000",
        "nonce": "0x1dc",
        "chainId": "0xaa36a7"
      },
      "additionalContracts": [],
      "isFixedGasLimit": false
    }
  ],
  "receipts": [
    {
      "status": "0x1",
      "cumulativeGasUsed": "0x444c3a",
      "logs": [
        {
          "address": "0xfd699481f0aa60e0014eed79d16cbe4b954ffaef",
          "topics": [
            "0x8be0079c531659141344cd1fd0a4f28419497f9722a3daafe3b4186f6b6457e0",
            "0x0000000000000000000000000000000000000000000000000000000000000000",
            "0x0000000000000000000000001c2f3137e71dec33c6111cfeb7f58b8389f9ff21"
          ],
          "data": "0x",
          "blockHash": "0xbcd0a935863e96ade1cca021a23c2691dcb2f4cff0da125fde64c4bb76109c33",
          "blockNumber": "0x9b207a",
          "blockTimestamp": "0x697ec1b0",
          "transactionHash": "0x8f33d578e7754967961ec48b7eef18c2140edb2ea45962e6b8ef5a0df527b365",
          "transactionIndex": "0x40",
          "logIndex": "0x2e",
          "removed": false
        }
      ],
      "logsBloom": "0x00000000000000000000000000000000000000000000000200800000000000000000000000000000000000000000000000000000000000000000000000000000000000000000000000000000000000400001000000000000000000000000000000000000020000000000000000000800000000000000000000000000000000400000000000000000000000000000000000000000000000004000000000000200000000000000000000000000000004000000000000000000000000000000000000000000000000000000000000000000000000000000000000000000000020000000000000000000000000000000000000000000000000040000000000000000",
      "type": "0x2",
      "transactionHash": "0x8f33d578e7754967961ec48b7eef18c2140edb2ea45962e6b8ef5a0df527b365",
      "transactionIndex": "0x40",
      "blockHash": "0xbcd0a935863e96ade1cca021a23c2691dcb2f4cff0da125fde64c4bb76109c33",
      "blockNumber": "0x9b207a",
      "gasUsed": "0x169f82",
      "effectiveGasPrice": "0x44999a7b",
      "from": "0x1c2f3137e71dec33c6111cfeb7f58b8389f9ff21",
      "to": null,
      "contractAddress": "0xfd699481f0aa60e0014eed79d16cbe4b954ffaef"
    },
    {
      "status": "0x1",
      "cumulativeGasUsed": "0x4500c1",
      "logs": [
        {
          "address": "0x94a9d9ac8a22534e3faca9f4e7f2e2cf85d5e4c8",
          "topics": [
            "0x8c5be1e5ebec7d5bd14f71427d1e84f3dd0314c0f7b2291e5b200ac8c7c3b925",
            "0x0000000000000000000000001c2f3137e71dec33c6111cfeb7f58b8389f9ff21",
            "0x000000000000000000000000fd699481f0aa60e0014eed79d16cbe4b954ffaef"
          ],
          "data": "0x00000000000000000000000000000000000000000000000000000000000f4240",
          "blockHash": "0xbcd0a935863e96ade1cca021a23c2691dcb2f4cff0da125fde64c4bb76109c33",
          "blockNumber": "0x9b207a",
          "blockTimestamp": "0x697ec1b0",
          "transactionHash": "0x4555686d8aab0bd9edc2efe02208365295a7c30696649aa1eb82ed228681236c",
          "transactionIndex": "0x41",
          "logIndex": "0x2f",
          "removed": false
        }
      ],
      "logsBloom": "0x00000000000000000000000000000000000000000000000200000000400000000000000000000000000000000000000000000000000000000000000000200000000000000000000000000000000000400000000000000000000008000000080000000000000000000000000000000000000000000000000000000000000000000000000000000000000000000000000000000000000000004000000000000000020000000100000000004000000000000000000000000000000000000000000000000000000000000000000000000000000000000000000000000000000000000010000000000080000000000000000000000000000000000000000000000000",
      "type": "0x2",
      "transactionHash": "0x4555686d8aab0bd9edc2efe02208365295a7c30696649aa1eb82ed228681236c",
      "transactionIndex": "0x41",
      "blockHash": "0xbcd0a935863e96ade1cca021a23c2691dcb2f4cff0da125fde64c4bb76109c33",
      "blockNumber": "0x9b207a",
      "gasUsed": "0xb487",
      "effectiveGasPrice": "0x44999a7b",
      "from": "0x1c2f3137e71dec33c6111cfeb7f58b8389f9ff21",
      "to": "0x94a9d9ac8a22534e3faca9f4e7f2e2cf85d5e4c8",
      "contractAddress": null
    },
    {
      "status": "0x1",
      "cumulativeGasUsed": "0x48747f",
      "logs": [
        {
          "address": "0x94a9d9ac8a22534e3faca9f4e7f2e2cf85d5e4c8",
          "topics": [
            "0xddf252ad1be2c89b69c2b068fc378daa952ba7f163c4a11628f55a4df523b3ef",
            "0x0000000000000000000000001c2f3137e71dec33c6111cfeb7f58b8389f9ff21",
            "0x000000000000000000000000fd699481f0aa60e0014eed79d16cbe4b954ffaef"
          ],
          "data": "0x00000000000000000000000000000000000000000000000000000000000f4240",
          "blockHash": "0xbcd0a935863e96ade1cca021a23c2691dcb2f4cff0da125fde64c4bb76109c33",
          "blockNumber": "0x9b207a",
          "blockTimestamp": "0x697ec1b0",
          "transactionHash": "0x101961a836079a13d8e63c058e88fd33b1b7f41d0f7c749ae416ee43c6d361b6",
          "transactionIndex": "0x42",
          "logIndex": "0x30",
          "removed": false
        },
        {
          "address": "0x94a9d9ac8a22534e3faca9f4e7f2e2cf85d5e4c8",
          "topics": [
            "0x8c5be1e5ebec7d5bd14f71427d1e84f3dd0314c0f7b2291e5b200ac8c7c3b925",
            "0x0000000000000000000000001c2f3137e71dec33c6111cfeb7f58b8389f9ff21",
            "0x000000000000000000000000fd699481f0aa60e0014eed79d16cbe4b954ffaef"
          ],
          "data": "0x0000000000000000000000000000000000000000000000000000000000000000",
          "blockHash": "0xbcd0a935863e96ade1cca021a23c2691dcb2f4cff0da125fde64c4bb76109c33",
          "blockNumber": "0x9b207a",
          "blockTimestamp": "0x697ec1b0",
          "transactionHash": "0x101961a836079a13d8e63c058e88fd33b1b7f41d0f7c749ae416ee43c6d361b6",
          "transactionIndex": "0x42",
          "logIndex": "0x31",
          "removed": false
        },
        {
          "address": "0x94a9d9ac8a22534e3faca9f4e7f2e2cf85d5e4c8",
          "topics": [
            "0x8c5be1e5ebec7d5bd14f71427d1e84f3dd0314c0f7b2291e5b200ac8c7c3b925",
            "0x000000000000000000000000fd699481f0aa60e0014eed79d16cbe4b954ffaef",
            "0x000000000000000000000000e03a1074c86cfedd5c142c4f04f1a1536e203543"
          ],
          "data": "0x00000000000000000000000000000000000000000000000000000000000f4240",
          "blockHash": "0xbcd0a935863e96ade1cca021a23c2691dcb2f4cff0da125fde64c4bb76109c33",
          "blockNumber": "0x9b207a",
          "blockTimestamp": "0x697ec1b0",
          "transactionHash": "0x101961a836079a13d8e63c058e88fd33b1b7f41d0f7c749ae416ee43c6d361b6",
          "transactionIndex": "0x42",
          "logIndex": "0x32",
          "removed": false
        },
        {
          "address": "0xe03a1074c86cfedd5c142c4f04f1a1536e203543",
          "topics": [
            "0x40e9cecb9f5f1f1c5b9c97dec2917b7ee92e57ba5563708daca94dd84ad7112f",
            "0x8b5b39162a2806c230079071fb3dcfff323885f6972eedc49bf4f83619d59b6c",
            "0x000000000000000000000000fd699481f0aa60e0014eed79d16cbe4b954ffaef"
          ],
          "data": "0xfffffffffffffffffffffffffffffffffffffffffffffffffffffffffff0bdc00000000000000000000000000000000000000000000000000dd28714c9fb8f0800000000000000000000000000000000000f3e5c00c293b9bd46ba34e3dd926c00000000000000000000000000000000000000000000000000038d80f8d2640000000000000000000000000000000000000000000000000000000000000437500000000000000000000000000000000000000000000000000000000000000bb8",
          "blockHash": "0xbcd0a935863e96ade1cca021a23c2691dcb2f4cff0da125fde64c4bb76109c33",
          "blockNumber": "0x9b207a",
          "blockTimestamp": "0x697ec1b0",
          "transactionHash": "0x101961a836079a13d8e63c058e88fd33b1b7f41d0f7c749ae416ee43c6d361b6",
          "transactionIndex": "0x42",
          "logIndex": "0x33",
          "removed": false
        },
        {
          "address": "0x15d3b7cbc9463f92a88ce7b1b384277da741c040",
          "topics": [
            "0x56a605c50ce408b1846a6a1117b72d4b801f498a860fe9c66adfd704cc8f731a",
            "0x9fc9212705a775dc1267b361b43ccda833c07986473da79558651f874598b96c",
            "0x4541a001988a0044d06f9dfc19a275e1f8b953ce42f3b199b832a6c187674234",
            "0x000000000000000000000000fd699481f0aa60e0014eed79d16cbe4b954ffaef"
          ],
          "data": "0xfffffffffffffffffffffffffffffffffffffffffffffffffffffffffff0bdc00000000000000000000000000000000000000000000000000dd28714c9fb8f080000000000000000000000000000000000000000000000000000000000000000000000000000000000000000000000000000000000000000000000000000000100000000000000000000000000000000000000000000000000000000697ec1b0",
          "blockHash": "0xbcd0a935863e96ade1cca021a23c2691dcb2f4cff0da125fde64c4bb76109c33",
          "blockNumber": "0x9b207a",
          "blockTimestamp": "0x697ec1b0",
          "transactionHash": "0x101961a836079a13d8e63c058e88fd33b1b7f41d0f7c749ae416ee43c6d361b6",
          "transactionIndex": "0x42",
          "logIndex": "0x34",
          "removed": false
        },
        {
          "address": "0x94a9d9ac8a22534e3faca9f4e7f2e2cf85d5e4c8",
          "topics": [
            "0xddf252ad1be2c89b69c2b068fc378daa952ba7f163c4a11628f55a4df523b3ef",
            "0x000000000000000000000000fd699481f0aa60e0014eed79d16cbe4b954ffaef",
            "0x000000000000000000000000e03a1074c86cfedd5c142c4f04f1a1536e203543"
          ],
          "data": "0x00000000000000000000000000000000000000000000000000000000000f4240",
          "blockHash": "0xbcd0a935863e96ade1cca021a23c2691dcb2f4cff0da125fde64c4bb76109c33",
          "blockNumber": "0x9b207a",
          "blockTimestamp": "0x697ec1b0",
          "transactionHash": "0x101961a836079a13d8e63c058e88fd33b1b7f41d0f7c749ae416ee43c6d361b6",
          "transactionIndex": "0x42",
          "logIndex": "0x35",
          "removed": false
        },
        {
          "address": "0xff34b3d4aee8ddcd6f9afffb6fe49bd371b8a357",
          "topics": [
            "0xddf252ad1be2c89b69c2b068fc378daa952ba7f163c4a11628f55a4df523b3ef",
            "0x000000000000000000000000e03a1074c86cfedd5c142c4f04f1a1536e203543",
            "0x000000000000000000000000fd699481f0aa60e0014eed79d16cbe4b954ffaef"
          ],
          "data": "0x0000000000000000000000000000000000000000000000000dd28714c9fb8f08",
          "blockHash": "0xbcd0a935863e96ade1cca021a23c2691dcb2f4cff0da125fde64c4bb76109c33",
          "blockNumber": "0x9b207a",
          "blockTimestamp": "0x697ec1b0",
          "transactionHash": "0x101961a836079a13d8e63c058e88fd33b1b7f41d0f7c749ae416ee43c6d361b6",
          "transactionIndex": "0x42",
          "logIndex": "0x36",
          "removed": false
        },
        {
          "address": "0xff34b3d4aee8ddcd6f9afffb6fe49bd371b8a357",
          "topics": [
            "0xddf252ad1be2c89b69c2b068fc378daa952ba7f163c4a11628f55a4df523b3ef",
            "0x000000000000000000000000fd699481f0aa60e0014eed79d16cbe4b954ffaef",
            "0x0000000000000000000000001c2f3137e71dec33c6111cfeb7f58b8389f9ff21"
          ],
          "data": "0x0000000000000000000000000000000000000000000000000dd28714c9fb8f08",
          "blockHash": "0xbcd0a935863e96ade1cca021a23c2691dcb2f4cff0da125fde64c4bb76109c33",
          "blockNumber": "0x9b207a",
          "blockTimestamp": "0x697ec1b0",
          "transactionHash": "0x101961a836079a13d8e63c058e88fd33b1b7f41d0f7c749ae416ee43c6d361b6",
          "transactionIndex": "0x42",
          "logIndex": "0x37",
          "removed": false
        },
        {
          "address": "0xfd699481f0aa60e0014eed79d16cbe4b954ffaef",
          "topics": [
            "0x3c5bf2660d1472f467a143f66bc9e416b4e864287f584ea0d47e083efa13ae49",
            "0xc88320eb621c041765bdad3562054b37be8c47f1cb354731f96bed43ef576786",
            "0x0000000000000000000000001c2f3137e71dec33c6111cfeb7f58b8389f9ff21",
            "0x9fc9212705a775dc1267b361b43ccda833c07986473da79558651f874598b96c"
          ],
          "data": "0x00000000000000000000000000000000000000000000000000000000000f42400000000000000000000000000000000000000000000000000dd28714c9fb8f08",
          "blockHash": "0xbcd0a935863e96ade1cca021a23c2691dcb2f4cff0da125fde64c4bb76109c33",
          "blockNumber": "0x9b207a",
          "blockTimestamp": "0x697ec1b0",
          "transactionHash": "0x101961a836079a13d8e63c058e88fd33b1b7f41d0f7c749ae416ee43c6d361b6",
          "transactionIndex": "0x42",
          "logIndex": "0x38",
          "removed": false
        }
      ],
      "logsBloom": "0x00000000000000000008000200000000000000000000000200000000400008000000002000000000000000000000201000000100040200000000000000200000000000000000000000000008000008400000000000000020000208000000080000000040000000000001000080000000000000000000100100000010000000000000001000000000000010000000000000000000008000624000000000000200020000000100000000004000100004000000000800000000000000000000000000000002000000000000000000000000001000000000000000001000000000001011000800000080004000000000000000000000000000040000000000014000",
      "type": "0x2",
      "transactionHash": "0x101961a836079a13d8e63c058e88fd33b1b7f41d0f7c749ae416ee43c6d361b6",
      "transactionIndex": "0x42",
      "blockHash": "0xbcd0a935863e96ade1cca021a23c2691dcb2f4cff0da125fde64c4bb76109c33",
      "blockNumber": "0x9b207a",
      "gasUsed": "0x373be",
      "effectiveGasPrice": "0x44999a7b",
      "from": "0x1c2f3137e71dec33c6111cfeb7f58b8389f9ff21",
      "to": "0xfd699481f0aa60e0014eed79d16cbe4b954ffaef",
      "contractAddress": null
    }
  ],
  "libraries": [],
  "pending": [],
  "returns": {},
  "timestamp": 1769914801752,
  "chain": 11155111,
  "commit": "1b7a2a8"
}