{
  "transactions": [
    {
      "hash": "0xd522c3981cdab125dff2499b8042eec423f9ae53c49e8a1f3bcac18b97a60c0b",
      "transactionType": "CALL",
      "contractName": null,
      "contractAddress": "0x233dc75bda7db90a33454e4333e3ac96eb7fb84e",
      "function": "approve(address,uint256)",
      "arguments": [
        "0xe57a783A55Da1FBA9aBAF1eD7bCDf16792604858",
        "10000000000000000000"
      ],
      "transaction": {
        "from": "0x1c2f3137e71dec33c6111cfeb7f58b8389f9ff21",
        "to": "0x233dc75bda7db90a33454e4333e3ac96eb7fb84e",
        "gas": "0xf7f5",
        "value": "0x0",
        "input": "0x095ea7b3000000000000000000000000e57a783a55da1fba9abaf1ed7bcdf167926048580000000000000000000000000000000000000000000000008ac7230489e80000",
        "nonce": "0x192",
        "chainId": "0x14a34"
      },
      "additionalContracts": [],
      "isFixedGasLimit": false
    },
    {
      "hash": "0x1c15d9d2d77596132b844649df0d64236d7602c09f516c659927ec06ac8dd421",
      "transactionType": "CALL",
      "contractName": null,
      "contractAddress": "0xe57a783a55da1fba9abaf1ed7bcdf16792604858",
      "function": "executeIntent((address,address,address,uint256,uint256,uint256,bytes32,uint256),bytes,(address,address,uint24,int24,address),bytes)",
      "arguments": [
        "(0x1C2F3137E71dEC33c6111cFeB7F58B8389F9fF21, 0x233Dc75Bda7dB90a33454e4333E3ac96eB7FB84E, 0x524C057B1030B3D832f1688e4993159C7A124518, 10000000000000000000, 500, 1770174522, 0x9fc9212705a775dc1267b361b43ccda833c07986473da79558651f874598b96c, 0)",
        "0x81a380d366a13bf6383529d57ffac72ecd0001c49a350f8fecbba1efcd6e2393058c0682c0b2992822586701fa9a45182d8c1ba9ff456b50fb54b7d267261bd81c",
        "(0x233Dc75Bda7dB90a33454e4333E3ac96eB7FB84E, 0x524C057B1030B3D832f1688e4993159C7A124518, 500, 10, 0x906E3e24C04f6b6B5b6743BB77d0FCBE4d87C040)",
        "0x00000000000000000000000000000000000000000000000000000000000000200000000000000000000000000000000000000000000000000000000000000015626173652d7365706f6c69612d6532652d746573740000000000000000000000"
      ],
      "transaction": {
        "from": "0x1c2f3137e71dec33c6111cfeb7f58b8389f9ff21",
        "to": "0xe57a783a55da1fba9abaf1ed7bcdf16792604858",
        "gas": "0x2cb7b0",
        "value": "0x0",
        "input": "0x1c6c0fd40000000000000000000000001c2f3137e71dec33c6111cfeb7f58b8389f9ff21000000000000000000000000233dc75bda7db90a33454e4333e3ac96eb7fb84e000000000000000000000000524c057b1030b3d832f1688e4993159c7a1245180000000000000000000000000000000000000000000000008ac7230489e8000000000000000000000000000000000000000000000000000000000000000001f4000000000000000000000000000000000000000000000000000000006982b83a9fc9212705a775dc1267b361b43ccda833c07986473da79558651f874598b96c000000000000000000000000000000000000000000000000000000000000000000000000000000000000000000000000000000000000000000000000000001e0000000000000000000000000233dc75bda7db90a33454e4333e3ac96eb7fb84e000000000000000000000000524c057b1030b3d832f1688e4993159c7a12451800000000000000000000000000000000000000000000000000000000000001f4000000000000000000000000000000000000000000000000000000000000000a000000000000000000000000906e3e24c04f6b6b5b6743bb77d0fcbe4d87c0400000000000000000000000000000000000000000000000000000000000000260000000000000000000000000000000000000000000000000000000000000004181a380d366a13bf6383529d57ffac72ecd0001c49a350f8fecbba1efcd6e2393058c0682c0b2992822586701fa9a45182d8c1ba9ff456b50fb54b7d267261bd81c00000000000000000000000000000000000000000000000000000000000000000000000000000000000000000000000000000000000000000000000000006000000000000000000000000000000000000000000000000000000000000000200000000000000000000000000000000000000000000000000000000000000015626173652d7365706f6c69612d6532652d746573740000000000000000000000",
        "nonce": "0x193",
        "chainId": "0x14a34"
      },
      "additionalContracts": [],
      "isFixedGasLimit": false
    }
  ],
  "receipts": [
    {
      "status": "0x1",
      "cumulativeGasUsed": "0x93e1a",
      "logs": [
        {
          "address": "0x233dc75bda7db90a33454e4333e3ac96eb7fb84e",
          "topics": [
            "0x8c5be1e5ebec7d5bd14f71427d1e84f3dd0314c0f7b2291e5b200ac8c7c3b925",
            "0x0000000000000000000000001c2f3137e71dec33c6111cfeb7f58b8389f9ff21",
            "0x000000000000000000000000e57a783a55da1fba9abaf1ed7bcdf16792604858"
          ],
          "data": "0x0000000000000000000000000000000000000000000000008ac7230489e80000",
          "blockHash": "0xc77d85f0aa323d032639418e9045f1017aa10eef5c984fa2dc9a9f4461e4345f",
          "blockNumber": "0x237a5b6",
          "blockTimestamp": "0x6982aa4c",
          "transactionHash": "0x1c15d9d2d77596132b844649df0d64236d7602c09f516c659927ec06ac8dd421",
          "transactionIndex": "0x9",
          "logIndex": "0x6",
          "removed": false
        }
      ],
      "logsBloom": "0x00000000000000000000000000000000000000000000000200000000000000000000000000000000000000000000000000000000000000000000000000200000000000000000000000000000000000400000000000000000000000000000000000000000000000000000000000000000000000000000000000000000000000000000000000000000000000000080000000000080000000004000000000000000020000000000000000000000000000000000000000000000000000002000000000000000000000000000000000000000000000000010000000000000000000000010000000000000000000000000000000000000000000000000000001000100",
      "type": "0x2",
      "transactionHash": "0x1c15d9d2d77596132b844649df0d64236d7602c09f516c659927ec06ac8dd421",
      "transactionIndex": "0x9",
      "blockHash": "0xc77d85f0aa323d032639418e9045f1017aa10eef5c984fa2dc9a9f4461e4345f",
      "blockNumber": "0x237a5b6",
      "gasUsed": "0xb385",
      "effectiveGasPrice": "0x12573c",
      "blobGasUsed": "0x79e0",
      "from": "0x1c2f3137e71dec33c6111cfeb7f58b8389f9ff21",
      "to": "0x233dc75bda7db90a33454e4333e3ac96eb7fb84e",
      "contractAddress": null,
      "daFootprintGasScalar": "0x138",
      "l1BaseFeeScalar": "0x44d",
      "l1BlobBaseFee": "0x380acb0",
      "l1BlobBaseFeeScalar": "0xa118b",
      "l1Fee": "0x1592ec8c5",
      "l1GasPrice": "0x40bfa065",
      "l1GasUsed": "0x640"
    },
    {
      "status": "0x1",
      "cumulativeGasUsed": "0x299e06",
      "logs": [
        {
          "address": "0x233dc75bda7db90a33454e4333e3ac96eb7fb84e",
          "topics": [
            "0xddf252ad1be2c89b69c2b068fc378daa952ba7f163c4a11628f55a4df523b3ef",
            "0x0000000000000000000000001c2f3137e71dec33c6111cfeb7f58b8389f9ff21",
            "0x000000000000000000000000e57a783a55da1fba9abaf1ed7bcdf16792604858"
          ],
          "data": "0x0000000000000000000000000000000000000000000000008ac7230489e80000",
          "blockHash": "0xc77d85f0aa323d032639418e9045f1017aa10eef5c984fa2dc9a9f4461e4345f",
          "blockNumber": "0x237a5b6",
          "blockTimestamp": "0x6982aa4c",
          "transactionHash": "0xd522c3981cdab125dff2499b8042eec423f9ae53c49e8a1f3bcac18b97a60c0b",
          "transactionIndex": "0xa",
          "logIndex": "0x7",
          "removed": false
        },
        {
          "address": "0x233dc75bda7db90a33454e4333e3ac96eb7fb84e",
          "topics": [
            "0x8c5be1e5ebec7d5bd14f71427d1e84f3dd0314c0f7b2291e5b200ac8c7c3b925",
            "0x000000000000000000000000e57a783a55da1fba9abaf1ed7bcdf16792604858",
            "0x00000000000000000000000005e73354cfdd6745c338b50bcfdfa3aa6fa03408"
          ],
          "data": "0x0000000000000000000000000000000000000000000000008ac7230489e80000",
          "blockHash": "0xc77d85f0aa323d032639418e9045f1017aa10eef5c984fa2dc9a9f4461e4345f",
          "blockNumber": "0x237a5b6",
          "blockTimestamp": "0x6982aa4c",
          "transactionHash": "0xd522c3981cdab125dff2499b8042eec423f9ae53c49e8a1f3bcac18b97a60c0b",
          "transactionIndex": "0xa",
          "logIndex": "0x8",
          "removed": false
        },
        {
          "address": "0x05e73354cfdd6745c338b50bcfdfa3aa6fa03408",
          "topics": [
            "0x40e9cecb9f5f1f1c5b9c97dec2917b7ee92e57ba5563708daca94dd84ad7112f",
            "0x28020417e2d8305995c0c6c2526f9968eb076b7cb3b3cb7ff72c8d21ba0c7b64",
            "0x000000000000000000000000e57a783a55da1fba9abaf1ed7bcdf16792604858"
          ],
          "data": "0xffffffffffffffffffffffffffffffffffffffffffffffffffffffffe21c0eba000000000000000000000000000000000000000000000000000000001db9f92700000000000000000000000000000000000000000000000000000001000276a40000000000000000000000000000000000000000000000000000000000000000fffffffffffffffffffffffffffffffffffffffffffffffffffffffffff2761800000000000000000000000000000000000000000000000000000000000001f4",
          "blockHash": "0xc77d85f0aa323d032639418e9045f1017aa10eef5c984fa2dc9a9f4461e4345f",
          "blockNumber": "0x237a5b6",
          "blockTimestamp": "0x6982aa4c",
          "transactionHash": "0xd522c3981cdab125dff2499b8042eec423f9ae53c49e8a1f3bcac18b97a60c0b",
          "transactionIndex": "0xa",
          "logIndex": "0x9",
          "removed": false
        },
        {
          "address": "0x906e3e24c04f6b6b5b6743bb77d0fcbe4d87c040",
          "topics": [
            "0xbcac31439e3a219bb164d9bf4dc38cf89b10232daf288ad0328557ba5da4d965",
            "0x9fc9212705a775dc1267b361b43ccda833c07986473da79558651f874598b96c",
            "0xc2be4e07f95200b93534496a77bca36c82e96523ba92c989be62cee9e85fb796",
            "0x0000000000000000000000001c2f3137e71dec33c6111cfeb7f58b8389f9ff21"
          ],
          "data": "0x000000000000000000000000e57a783a55da1fba9abaf1ed7bcdf16792604858ffffffffffffffffffffffffffffffffffffffffffffffffffffffffe21c0eba000000000000000000000000000000000000000000000000000000001db9f927000000000000000000000000000000000000000000000000000000000000270f0000000000000000000000000000000000000000000000000000000000000000000000000000000000000000000000000000000000000000000000006982aa4c",
          "blockHash": "0xc77d85f0aa323d032639418e9045f1017aa10eef5c984fa2dc9a9f4461e4345f",
          "blockNumber": "0x237a5b6",
          "blockTimestamp": "0x6982aa4c",
          "transactionHash": "0xd522c3981cdab125dff2499b8042eec423f9ae53c49e8a1f3bcac18b97a60c0b",
          "transactionIndex": "0xa",
          "logIndex": "0xa",
          "removed": false
        },
        {
          "address": "0x233dc75bda7db90a33454e4333e3ac96eb7fb84e",
          "topics": [
            "0xddf252ad1be2c89b69c2b068fc378daa952ba7f163c4a11628f55a4df523b3ef",
            "0x000000000000000000000000e57a783a55da1fba9abaf1ed7bcdf16792604858",
            "0x00000000000000000000000005e73354cfdd6745c338b50bcfdfa3aa6fa03408"
          ],
          "data": "0x000000000000000000000000000000000000000000000000000000001de3f146",
          "blockHash": "0xc77d85f0aa323d032639418e9045f1017aa10eef5c984fa2dc9a9f4461e4345f",
          "blockNumber": "0x237a5b6",
          "blockTimestamp": "0x6982aa4c",
          "transactionHash": "0xd522c3981cdab125dff2499b8042eec423f9ae53c49e8a1f3bcac18b97a60c0b",
          "transactionIndex": "0xa",
          "logIndex": "0xb",
          "removed": false
        },
        {
          "address": "0x524c057b1030b3d832f1688e4993159c7a124518",
          "topics": [
            "0xddf252ad1be2c89b69c2b068fc378daa952ba7f163c4a11628f55a4df523b3ef",
            "0x00000000000000000000000005e73354cfdd6745c338b50bcfdfa3aa6fa03408",
            "0x000000000000000000000000e57a783a55da1fba9abaf1ed7bcdf16792604858"
          ],
          "data": "0x000000000000000000000000000000000000000000000000000000001db9f927",
          "blockHash": "0xc77d85f0aa323d032639418e9045f1017aa10eef5c984fa2dc9a9f4461e4345f",
          "blockNumber": "0x237a5b6",
          "blockTimestamp": "0x6982aa4c",
          "transactionHash": "0xd522c3981cdab125dff2499b8042eec423f9ae53c49e8a1f3bcac18b97a60c0b",
          "transactionIndex": "0xa",
          "logIndex": "0xc",
          "removed": false
        },
        {
          "address": "0x524c057b1030b3d832f1688e4993159c7a124518",
          "topics": [
            "0xddf252ad1be2c89b69c2b068fc378daa952ba7f163c4a11628f55a4df523b3ef",
            "0x000000000000000000000000e57a783a55da1fba9abaf1ed7bcdf16792604858",
            "0x0000000000000000000000001c2f3137e71dec33c6111cfeb7f58b8389f9ff21"
          ],
          "data": "0x000000000000000000000000000000000000000000000000000000001db9f927",
          "blockHash": "0xc77d85f0aa323d032639418e9045f1017aa10eef5c984fa2dc9a9f4461e4345f",
          "blockNumber": "0x237a5b6",
          "blockTimestamp": "0x6982aa4c",
          "transactionHash": "0xd522c3981cdab125dff2499b8042eec423f9ae53c49e8a1f3bcac18b97a60c0b",
          "transactionIndex": "0xa",
          "logIndex": "0xd",
          "removed": false
        },
        {
          "address": "0xe57a783a55da1fba9abaf1ed7bcdf16792604858",
          "topics": [
            "0x3c5bf2660d1472f467a143f66bc9e416b4e864287f584ea0d47e083efa13ae49",
            "0xac855ff8ecb1ecef7963065ffff724d1adbaf3fb62acec3a7601469f4237bfa2",
            "0x0000000000000000000000001c2f3137e71dec33c6111cfeb7f58b8389f9ff21",
            "0x9fc9212705a775dc1267b361b43ccda833c07986473da79558651f874598b96c"
          ],
          "data": "0x0000000000000000000000000000000000000000000000008ac7230489e80000000000000000000000000000000000000000000000000000000000001db9f927",
          "blockHash": "0xc77d85f0aa323d032639418e9045f1017aa10eef5c984fa2dc9a9f4461e4345f",
          "blockNumber": "0x237a5b6",
          "blockTimestamp": "0x6982aa4c",
          "transactionHash": "0xd522c3981cdab125dff2499b8042eec423f9ae53c49e8a1f3bcac18b97a60c0b",
          "transactionIndex": "0xa",
          "logIndex": "0xe",
          "removed": false
        }
      ],
      "logsBloom": "0x00100000000000000000200000000000000204000000000200000000000008001000000100000200000000000000000002000010040200000000080000200000000000000010000020000008000008400000000000100020000200000000000000000000000000000001000000000000000000000000000000000010000010000000000004000012000000000080000100000080000000014000000000000000020000000000000000000000100000000000000000000000000000002000000000000002801000000010000010000000004000000010100000000000000000000010000000000000004000000800000000000000000000000000000001000100",
      "type": "0x2",
      "transactionHash": "0xd522c3981cdab125dff2499b8042eec423f9ae53c49e8a1f3bcac18b97a60c0b",
      "transactionIndex": "0xa",
      "blockHash": "0xc77d85f0aa323d032639418e9045f1017aa10eef5c984fa2dc9a9f4461e4345f",
      "blockNumber": "0x237a5b6",
      "gasUsed": "0x205fec",
      "effectiveGasPrice": "0x12573c",
      "blobGasUsed": "0x18d50",
      "from": "0x1c2f3137e71dec33c6111cfeb7f58b8389f9ff21",
      "to": "0xe57a783a55da1fba9abaf1ed7bcdf16792604858",
      "contractAddress": null,
      "daFootprintGasScalar": "0x138",
      "l1BaseFeeScalar": "0x44d",
      "l1BlobBaseFee": "0x380acb0",
      "l1BlobBaseFeeScalar": "0xa118b",
      "l1Fee": "0x1592ec8c5",
      "l1GasPrice": "0x40bfa065",
      "l1GasUsed": "0x1464"
    }
  ],
  "libraries": [],
  "pending": [],
  "returns": {},
  "timestamp": 1770170954406,
  "chain": 84532,
  "commit": "a5a7cfd"
}